:100000000C9425040C945D040C945D040C945D0424
:100010000C945D040C945D040C945D040C945D04DC
:100020000C945D040C945D040C947A270C94522873
:100030000C942F270C945D040C945D040C945D04C7
:100040000C945D040C945D040C945D040C945D04AC
:100050000C945D040C9456270C945D040C945D0480
:100060000C945D040C945D040C945D040C945D048C
:100070000C945D040C945D040C945D040C945D047C
:100080000C945D040C945D040C945D040C945D046C
:100090000C945D040C945D040C945D040C945D045C
:1000A0000C945D040C945D040C945D04050109023C
:1000B000A10185020901A1000509190129081500FE
:1000C0002501950875018102050109300931158165
:1000D000257F95027508810609381581257F9501D0
:1000E00075088106050C0A38021581257F95017572
:1000F000088106C0C005010980A101850319012AF4
:10010000B700150126B700950175108100C0050CD8
:100110000901A101850419012AA002150126A002E6
:10012000950175108100C00660FF0961A101096297
:10013000150026FF00952075088102096315002629
:10014000FF00952075089102C005010906A101056F
:100150000719E029E7150025019508750181029529
:1001600001750881010507190029FF150026FF0008
:100170009506750881000508190129051500250156
:10018000950575019102950175039101C009025B06
:1001900000030100A0FA09040000010301010009A5
:1001A0002111010001224400070581030800010913
:1001B00004010002030000000921110100012222B4
:1001C0000007058203200001070503032000010941
:1001D0000402000103000000092111010001227B3B
:1001E000000705840320000112010002000000083E
:1001F000D804E9EC0100010200010A03680038009C
:100200003700610000001403680069006E0065009B
:10021000790062007500730068000000040309049F
:1002200029003A003C003E00400000004300450029
:10023000470000003B003D003F00410042004400F9
:100240004600480035001F0021002300250027003C
:100250002E002A004A001E00200022002400260052
:100260002D002A0049004B002B001A0015001C002D
:100270000C001300300000004D00140008001700AF
:10028000180012002F0031004C004E0039001600FB
:1002900009000B000E0033003200000000000400D3
:1002A00007000A000D000F003400280000000000C5
:1002B000E1001D000600050010003700E500000009
:1002C000520064001B0019001100360038000100C4
:1002D00000000000E000E200000000000000E60076
:1002E000E70000005100E300000000002C000000C7
:1002F0002152E40050004F0001000100010020786D
:100300002478000025782778037800000100010098
:100310002178237826782878027804780100010073
:1003200001000100010001000100010001000100C5
:100330000100010001000100010001000100A9000D
:1003400001000100007C010001000100010000002B
:10035000AB000100010001000100010001000100EB
:10036000AE00AA000100010001000100010001002F
:100370000100000000000100010001000100010077
:100380000100010000000000010001000100010067
:100390000100010001000000010001000100010056
:1003A0000100010001000100000000000100010047
:1003B0000000000000000100010000000100010039
:1003C0000000000001000000010001000100010028
:1003D00001000100010020782478000025782778AA
:1003E000037800000100010021782378267828781E
:1003F0000278047801000100010001000100010001
:1004000001000100010001000100010001000100E4
:10041000010001000100A90001000100007C0100B1
:100420000100010001000000AB000100010001001B
:100430000100010001000100AE00AA00010001005E
:1004400001000100010001000100000000000100A6
:100450000100010001000100010001000000000096
:100460000100010001000100010001000100000085
:100470000100010001000100010001000100010074
:100480000000000001000100000000000000010069
:100490000100000001000100000000000100000058
:1004A00001000100010001000100010001002078AD
:1004B00024780000257827780378000001000100E7
:1004C00021782378267828780278047801000100C2
:1004D0000100010001000100010001000100010014
:1004E0000100010001000100010001000100A9005C
:1004F00001000100007C010001000100010000007A
:10050000AB00010001000100010001000100010039
:10051000AE00AA000100010001000100010001007D
:1005200001000000000001000100010001000100C5
:1005300001000100000000000100010001000100B5
:1005400001000100010000000100010001000100A4
:100550000100010001000100000000000100010095
:100560000000000000000100010000000100010087
:100570000000000001000000010001000100010076
:100580002223252628292A2C2D2F303233353638A0
:100590003A3B3D3E4042434547494A4C4E505153F9
:1005A0005557595A5C5E6062646668696B6D6F711D
:1005B000737577797B7D7F81838587898A8C8E901F
:1005C000929496989A9C9E9FA1A3A5A7A8AAACAE28
:1005D000AFB1B3B4B6B8B9BBBCBEBFC1C2C3C5C668
:1005E000C7C9CACBCCCDCED0D1D2D2D3D4D5D6D711
:1005F000D7D8D9D9DADADBDBDBDCDCDCDCDCDDDD4F
:10060000DDDDDCDCDCDCDCDBDBDBDADAD9D9D8D73E
:10061000D7D6D5D4D3D2D2D1D0CECDCCCBCAC9C7E0
:10062000C6C5C3C2C1BFBEBCBBB9B8B6B4B3B1AF17
:10063000AEACAAA8A7A5A3A19F9E9C9A98969492B7
:10064000908E8C8A89878583817F7D7B797775738E
:10065000716F6D6B6968666462605E5C5A5957556C
:100660005351504E4C4A4947454342403E3D3B3A28
:100670003836353332302F2D2C2A292826252322AF
:10068000FFAA7F55400001010101010101010102A2
:100690000202020202020202030303030303030332
:1006A00004040404040404050505050506060606FD
:1006B00006070707070708080808090909090A0AB9
:1006C0000A0B0B0B0C0C0C0D0D0D0E0E0E0F0F0F5D
:1006D00010101111111212131314141515161617E8
:1006E00017181819191A1A1B1B1C1D1D1E1E1F2056
:1006F00020212222232424252626272829292A2BA3
:100700002C2D2D2E2F3031323233343536373839C7
:100710003A3B3C3D3E3F40414243444546474849C1
:100720004A4C4D4E4F50515354555658595A5B5D93
:100730005E5F616264656668696B6C6D6F70727331
:100740007577787A7B7D7E8082838587888A8C8E98
:100750008F91939596989A9C9EA0A2A3A5A7A9ABCA
:10076000ADAFB1B3B5B7BABCBEC0C2C4C6C9CBCDBC
:10077000CFD1D4D6D8DBDDDFE2E4E7E9EBEEF0F36E
:10078000F5F8FAFDFF1E0F0500047F3F1F643214C9
:10079000643214783C1E1E140A050000000000009C
:1007A0000000000000000000000000000000000049
:1007B00000000000000000000000000000007E0FAC
:1007C00000D4FFFFFFC70000007800000000000019
:1007D00000002A2B2800000000000000000000009C
:1007E000000000000029000000002C1E34202122FF
:1007F00024342627252E362D3738271E1F20212268
:10080000232425263333362E37381F0405060708E0
:10081000090A0B0C0D0E0F101112131415161718D0
:10082000191A1B1C1D2F3130232D3504050607080E
:10083000090A0B0C0D0E0F101112131415161718B0
:10084000191A1B1C1D2F3130354C11241FBECFEF40
:10085000DAE0DEBFCDBF04B603FE18C0809181038D
:1008600090918203A0918303B09184038730904BD1
:10087000A740B04B59F4109281031092820310925A
:10088000830310928403E0E0F8E3099523E0A2EAF1
:10089000B1E001C01D92A138B207E1F711E0A0E07C
:1008A000B1E0EAE4F6E502C005900D92A23AB10784
:1008B000D9F70E94BF200C94A92A0C94000082FB57
:1008C000992790F981FD05C05D9A911104C0769A2F
:1008D00008955D98FACF7698089580933A03089525
:1008E00080933B03089521E030E001C0220F8A95F8
:1008F000EAF780913B03822B0E947004089521E067
:1009000030E0A90102C0440F551F8A95E2F7CA01E1
:10091000809590913B0389230E9470040895292FAC
:100920009C3090F5893080F590E039E0239F800D70
:10093000911D1124282F277041E001C0440F2A95F2
:10094000EAF723E0969587952A95E1F7FC01EE0FEB
:10095000FF1FE80FF91FE950FD4F20E030E070E085
:100960005191DF01CB01022E02C0969587950A9422
:10097000E2F7817081958527842385278E932F5FE9
:100980003F4F2330310561F70895292F9C3078F5CA
:10099000893068F590E039E0239F800D911D112486
:1009A000682F677023E0969587952A95E1F7FC01FB
:1009B000EE0FFF1FE80FF91FE950FD4F40E050E038
:1009C00080E0219130E0062E02C0369527950A94EA
:1009D000E2F721703327042E01C0220F0A94EAF7B0
:1009E000822B4F5F5F4F4330510559F7089580E0E8
:1009F000089590913B0321E030E0F90101C0EE0F32
:100A00008A95EAF7D90102C0AA0FBB1F6A95E2F7DF
:100A1000EA2B01C0220F4A95EAF7892F8E23E813AB
:100A200005C0892F822B0E94700408952095822F83
:100A30008923F9CF8091410390914003981301C01D
:100A400008958F5F8770FACF90913C03809589233A
:100A500080933C03282F277021110DC0891759F06E
:100A600090913E0392FF07C08695869586950E94D9
:100A70007F0410923C030895982F9095809137033E
:100A800089238093370308959C01803E910509F4E2
:100A900048C0D8F48133910509F47DC048F4893207
:100AA000910509F46DC08A9709F47CC0C9010895C5
:100AB0008933910551F18238910539F1C597B1F724
:100AC00080913D0385FFF2CF29C0843E910509F452
:100AD00047C048F4823E910599F1833E9105A9F102
:100AE00021EE30E0E3CF863E910509F444C0873E15
:100AF0009105E1F680913D0383FD61C090913E0335
:100B000091FF2BC024EE30E0D1CF80913D03837064
:100B1000811152C080913E0383FFC8CF29E230E0AB
:100B2000C5CF80913D0380FD33C090913E0390FF7F
:100B3000BDCF23EE30E084FFB9CF20E030E0B6CF68
:100B400080913D0382FDF5CFB1CF80913D0382FDC1
:100B500030C090913E0390FD2FC084FFA7CFEDCF12
:100B600080913E0381FFA2CF80913D0327EE30E0CC
:100B700084FDE3CF9BCF80913D0383FDF7CF96CFDC
:100B800080913D0385FD1EC080913E0383FF8ECF83
:100B900029E330E08BCF80913D0386FF87CF2AE2A7
:100BA00030E084CF80913D0386FF80CF21E330E0A9
:100BB0007DCF22EE30E07ACF20EE30E077CF26EE08
:100BC00030E074CF25E330E071CF90913D0392FF88
:100BD00010C041E0282F2471243009F040E031E0BA
:100BE000282F2871283009F030E0431711F02CE04D
:100BF000822793FF10C041E0282F2471243109F08F
:100C000040E031E0282F2871283109F030E0431707
:100C100011F02CE0822730913E0330FF10C051E0EC
:100C2000282F2171213009F050E041E0282F287150
:100C3000283009F040E0541711F029E0822731FFF5
:100C400010C041E0282F2171213109F040E031E04E
:100C5000282F2871283109F030E0431711F029E0DE
:100C6000822794FD877E08951F93CF93DF930E9480
:100C70004405EC01811522E5920708F055C0811565
:100C800040E5940708F0D1C0803E910520F58D3CE9
:100C9000910508F0A4C0883A910570F4853A910551
:100CA00008F09AC081309105D1F10497813A9105FD
:100CB000B0F1C0E0D0E033C0885A91094B97C8F733
:100CC000C85AD0E0CC0FDD1FC459DE4F0990D8813F
:100CD000C02DD46424C0811550E49507C0F4C1151B
:100CE00080E2D80708F0B7C0C83ED105C0F0CE01F9
:100CF0009A9581159F41E8F68D2F0E94E505182FE2
:100D0000CE0199270E944405EC01D12B08C09927F8
:100D10000E944405CC27DF70C82BD92BD06ACE01A6
:100D2000DF91CF911F910895803842E59407C8F56F
:100D3000803652E5950708F05BC0C03482E5D807DD
:100D4000D0F4C03292E5D90708F04BC08C2F8695BD
:100D5000869520E2829FC0011124C37021E030E01B
:100D6000A90102C0440F551FCA95E2F7EA01C82B3A
:100D7000D92BDD68D4CF8C2F86958695877050E26D
:100D8000859FC0011124C37021E030E0A90102C099
:100D9000440F551FCA95E2F7EA01C82BD92BDC682E
:100DA000BECF803C52E5950758F48F71C03AD245CA
:100DB000A0F590E0982F8827EC01C46FD06AAFCFE0
:100DC000805C9245809708F074CFDC2FCC27CC272D
:100DD000DF71C06FD06AA3CFA497D064A0CFD065D5
:100DE0009ECFCF71D0E0DC2FCC27C16FD06A97CFD8
:100DF00086958695877020E2829FC0011124C3707A
:100E000021E030E0A90102C0440F551FCA95E2F766
:100E1000EA01C82BD92BDA6882CF0E94E505C82FDA
:100E2000D0E0DC2FCC27D0627ACF8F710E94E5050D
:100E300093E0CC0FDD1F9A95E1F7CC27DF70282FC8
:100E400030E084FF04C050E1859F90011124C22B43
:100E5000D32BD06964CF8D2F8F710E94E505182F99
:100E6000CE0199270E944405EC01D12BDCCF80E014
:100E70000895F894E82FE295EF70F0E041A18F70AB
:100E800021E030E0B90102C0660F771F8A95E2F7D2
:100E9000CB01962F9095942391A392A1892B82A3A5
:100EA000789408950895AF92BF92CF92DF92FF9207
:100EB0000F931F93CF93DF93F62EE901493C08F07F
:100EC00048ECE42FF0E0EB57F94FF11010C0E4913B
:100ED000BE2E2E2F2983E883BA82DF91CF911F91F6
:100EE0000F91FF90DF90CF90BF90AF900895C82EE4
:100EF000D12CAF2CB12C3491232F46E0849F80015C
:100F00001124EFEFF0E0C801BF010E94C728CC0C0C
:100F1000DD1C45E5469FC001479F900D1124C81A6E
:100F2000D90A8C2D880FC80ECF018A199B095C0144
:100F30003A9DC0013B9D900D1124B92EFC9CD0011F
:100F40001124AB2FBB27AF014A1B5B0BDA013A9F81
:100F5000A0013B9F500D1124DF01AC19B1096D01B7
:100F6000FC9CD001FD9CB00D1124AB2FBB27EA1BCC
:100F7000FB0B3E9FD0013F9FB00D1124EB2F633040
:100F80007105C1F00C3F134058F461307105B1F0A8
:100F90006230710509F09ECFE22F292FBB2E9ACF28
:100FA0006430710571F06630710509F493CFE92F53
:100FB000B52E90CF292FB32EE52F8CCFE22F252FE2
:100FC00089CFE92FB22E2B2F85CF80912F0384302C
:100FD00060F48370846080932F0380913203893C96
:100FE00018F088EC8093320308958C3AB0F3837044
:100FF000886AF1CF80912F0380FD0AC0E9E4F2E016
:10100000118210821282339682E0E139F807C1F72B
:1010100068E170E089E492E00E94450E0895EF9245
:10102000FF921F93CF93DF93EC0189E4E82E82E0D7
:10103000F82E10E08C8197014091320360913103CA
:10104000810F0E945307165F83E0E80EF11C103FEA
:1010500089F70E94FA078C819A8190FF08C08F5F00
:101060008C83DF91CF911F91FF90EF900895815075
:10107000F7CFA0E0B0E0EFE3F8E00C941529FC0115
:101080008281DD24D39480FF02C0DD24DA94C9E498
:10109000D2E000E010E0198218821A8294E0E92E72
:1010A000F12CC12C809148028C0D8931BCF168E192
:1010B0000E94B928892F082E001C000880170106FD
:1010C00089F4409132032E2D2403A001112455955B
:1010D0004795559547959E01609131038091300366
:1010E0000E945307CD0C81E0E81AF108D9F60F5F92
:1010F0001F4F23960831110571F60E94FA0780915F
:10110000480291E0D9120EC0811591F08150809370
:101110004802CDB7DEB7E8E00C94312987FFCBCF8A
:10112000885EC9CF90E00196B8010E94DB28EFCF1E
:1011300087E1EDCF0F931F93CF93DF93C9E4D2E004
:10114000FE01118210821282339682E0E139F807A3
:10115000C1F700E010E080914702082E001C000853
:10116000081710058CF180910701082E001C00085B
:10117000801701064CF19E014091320360913103CA
:10118000809130030E9453070F5F1F4F2396083151
:10119000110509F70E94FA07809106019091470214
:1011A000980F9093470220910701280F2093070181
:1011B000121614F497311CF0819580930601DF918B
:1011C000CF911F910F910895198218821A82DCCF56
:1011D000A6E0B0E0EEEEF8E00C9415298D839E8336
:1011E000AD81BE811496FC912F2F30E0D9010E9471
:1011F0009A2A9B01AC010E94652A6B017C0180E266
:1012000090E09C012F1B3109F901A5E5B0E0A70191
:1012100096010E94652A69837A838B839C839F0150
:10122000DF010E94FC289B010E9404299B01AC0164
:101230002C0D3D1D4E1D5F1D69817A818B819C8126
:101240000E94782A022F30E00A32C8F5A901440F23
:10125000551F420F531F55954795142F109599E42C
:10126000C92E92E0D92EF12C85E5E82EE01A8E2DBC
:10127000F1FC802F9601412F609131030E945307AA
:10128000F39433E0C30ED11C88E1F812F0CF0E9432
:10129000FA07AD81BE8114969C9181E0911519F0F9
:1012A000903219F48FEF8093050180910501890F29
:1012B000ED81FE8184832696E8E00C94312985E552
:1012C00090E0821B930BAC01440F551F480F591F30
:1012D00057FFC1CF4F5F5F4FBECFEF92FF920F938B
:1012E0001F93CF93DF938C01C9E4D2E0E12CF12C62
:1012F0006091310380913003F8019481FCE0EF1696
:10130000F104ECF49115E9F09E01409132030E9442
:1013100053072FEFE21AF20A239688E1E816F10448
:1013200039F70E94FA07F801848190E001968170F4
:1013300099278483CDB7DEB7E6E00C943329911565
:1013400019F39E0140E0E3CF90912F0390FF0CC072
:10135000E9E4F2E0818360834283339692E0E139ED
:10136000F907C1F70E94FA070895A3E0B0E0EBEB9C
:10137000F9E00C9419298C018091460281110AC070
:101380009E012F5F3F4F48EC6FEF0E9453078A8109
:1013900080934602F8016481613049F06230D1F0F7
:1013A0008091460240E0611531F040E015C0609147
:1013B000460240E080E00E94A409F801848190E0A8
:1013C000019663E070E00E94DB2884832396E4E0CA
:1013D0000C9435294091460280E060E0ECCFA3E018
:1013E000B0E0E5EFF9E00C941B2990912F0390FFFA
:1013F0000AC09E012F5F3F4F0E9453074B816981B6
:101400008A810E94A4092396E2E00C943729CF93A5
:10141000DF93EC01EFE2F3E0438162818C810E9473
:10142000EF098C818F5F8C83DF91CF910895CF93EB
:10143000DF93EC01EC81F0E0E058FA4F4491EFE2E9
:10144000F3E0628181810E94EF098C818F5F8C8340
:10145000DF91CF910895FA01811511F00995089552
:10146000FB01FCCFA0E0B0E0E8E3FAE00C94152922
:10147000843080F581112FC090918000977F9093E8
:1014800080002091860030918700A82FB0E00E9454
:101490009A2A23E030E040E050E00E94782A690177
:1014A0007A0180918600909187006CE070E00E9444
:1014B000C7286217730798F0C90169E070E00E94BD
:1014C000C72870938D0060938C00CDB7DEB7E8E03D
:1014D0000C94312983E0909180009860D0CF809166
:1014E00086009091870000918600109187002091DE
:1014F000860030918700C6E0D0E0BE010E94C72878
:10150000C60ED71EE11CF11C85E0CC0CDD1CEE1CC8
:10151000FF1C8A95D1F7C801BE010E94C72840E090
:1015200050E0260F371F411D511DC701B6010E9413
:10153000782A69017A01E0918600F0918700CA015A
:10154000B9010E949D289B01AC01DF010E94652A20
:101550009B01AC01C701B6010E949D282FE0969522
:101560008795779567952A95D1F7209186003091D8
:101570008700261737071806190608F0A2CF6091D2
:101580008600709187009DCF982F990F990F990F22
:1015900020912A032770922B90932A0321E0983000
:1015A00008F420E090912A0320FB90F990932A03FD
:1015B0000E94320A0895539A0895282F35EB230389
:1015C000C001112497FF04C080589109892F089504
:1015D00080589F4FFBCF8091230380FD14C081FD75
:1015E00014C082FD16C080912203811581F08E31D6
:1015F00080F420E5829FC00111246EE170E00E941A
:10160000DB28862F089584E1089588E2089588E014
:10161000089580E508958091230380FD17C081FD22
:1016200017C082FD19C080912103811599F088327D
:1016300098F428E0829FC001112468E270E00E94C3
:10164000DB286115710551F0862F089562E0FCCF0B
:1016500064E0FACF61E0F8CF68E0F6CF81E008956A
:10166000E091ED02F091EE02309729F00190F081C7
:10167000E02D0995089580E00895A3E0B0E0E3E44B
:10168000FBE00C941B299C018091CC019091CD0131
:1016900082179307A1F03093CD012093CC01E09104
:1016A000ED02F091EE02309751F083E089833B83A5
:1016B0002A830084F185E02DCE01019609952396B9
:1016C000E2E00C943729A3E0B0E0E9E6FBE00C94FB
:1016D0001B299C018091CA019091CB01821793072D
:1016E000A1F03093CB012093CA01E091ED02F0917B
:1016F000EE02309751F084E089833B832A83008493
:10170000F185E02DCE01019609952396E2E00C9437
:101710003729A6EAB1E0EFEF90E02D91821751F062
:10172000EF3F19F4211101C0E92F9F5F9630A9F70F
:10173000EF3F09F408950E2E000CFF0BEC55FE4F01
:1017400082830895E6EAF1E09191891302C0DF01F6
:101750001E9291E0EC3AF907B9F708952FB7F89483
:101760008091C6019091C701A091C801B091C901B3
:101770002FBF08950E94AE0B2091260330912703BE
:10178000232B211521F08093CF029093D00220913A
:10179000280330912903232B211521F08093CD02BA
:1017A0009093CE02E091ED02F091EE02309749F075
:1017B00082E0809324030680F781E02D84E293E0A9
:1017C00009950895209126039091290330912803CB
:1017D000611509F458C040912703242B292B232B92
:1017E000211531F098E09093220391E0909321032A
:1017F000E3E3E80FE33150F4F0E0E555F54D0C94E8
:10180000EF280E94EB0A8195809327030E94BA0B70
:1018100008950E94EB0AF8CF0E94EB0A819580930D
:101820002603F4CF0E94EB0AFACF0E940B0B8093A1
:101830002803ECCF0E940B0B8195F9CF0E940B0B74
:10184000819580932903E2CF0E940B0BFACF815D33
:10185000990B21E030E001C0220F8A95EAF78091D0
:101860002503822B80932503D1CF809123038160B0
:1018700080932303CBCF809123038260F9CF8091A3
:1018800023038460F5CF8D3C59F48091270387FFB3
:101890000DC010922703211559F41092220308C09D
:1018A0008E3C81F48091270318169CF3211581F05A
:1018B0008091280390912903892B8111A7CF109241
:1018C0002103A4CF8F3C41F427FFF0CF10922603D1
:1018D000809127038115E0CF803D19F41216B4F3EF
:1018E000E5CF893D29F413160CF710922803DECFBB
:1018F0008A3D19F437FFDACFF8CF8B3D29F497FFF3
:10190000D5CF10922903D2CF8C3D19F41916CCF300
:10191000CDCF9FE2980F983090F4815D990B41E014
:1019200050E0BA0102C0660F771F8A95E2F7CB013B
:10193000809590912503892380932503B7CF8D3D12
:1019400031F4809123038E7F80932303AFCF8E3DAC
:1019500021F4809123038D7FF7CF8F3D09F0A6CF2F
:10196000809123038B7FF0CF2FB7F8946091C6014D
:101970007091C7018091C8019091C9012FBF08954E
:101980009C014FB7F8948091C6019091C701A09136
:10199000C801B091C9014FBF821B930B089580917C
:1019A000C50108950895FC019B018091BB019091B0
:1019B000BC018617970740F0672B29F48091E80057
:1019C0008E778093E800C90140E0009741F441110F
:1019D00006C08091E80082FF2FC080E0089520912A
:1019E000EA022115A9F12530A9F12091E80023FD93
:1019F0002DC02091E80022FDECCF2091E80020FFCF
:101A0000E4CF3091F3002091F200009719F02830D4
:101A1000310558F041E02830310509F040E02091CF
:101A2000E8002E772093E800D0CF41914093F10059
:101A300001972F5F3F4FE9CF8091EA02811541F076
:101A4000853041F08091E80083FFC3CF81E00895A5
:101A500082E0089583E008958091B50187FF13C067
:101A60008091E80082FF06C08091E8008B77809328
:101A7000E80008958091EA028111F2CF08958091E3
:101A8000EA028115D9F38091E80080FFF8CF8091B8
:101A9000E8008E77ECCF2091E4003091E50095E6E8
:101AA000A9012091EC00822F817020FF06C0809157
:101AB000E80080FF06C080E008952091E80022FD44
:101AC0001AC08091EA02811589F0853089F08091F1
:101AD000EB0085FD0FC02091E4003091E500421736
:101AE0005307F9F29A95E1F684E0089582E00895AB
:101AF00083E0089581E00895E8EDF0E080818E7F35
:101B000080831092E2001092DA001092E100A0EEC1
:101B1000B0E08C9181608C9380818F77808319BC39
:101B2000A7EDB0E08C918E7F8C9380818F7E808337
:101B30001092B4010895982F9093E900891771F0DD
:101B40007091EC002091ED005091F00021FD09C052
:101B50009F5F973089F78093E9000895762F242FAF
:101B600050E03091EB003E7F3093EB003091ED0080
:101B70003D7F3093ED003091EB0031603093EB000E
:101B80007093EC002093ED005093F0002091EE0054
:101B900027FDDECF0895A0E0B0E0E1EDFDE00C947C
:101BA0001529C8EDD0E088818F7E8883E7EDF0E0CD
:101BB00080818160808384E082BF81E08093B40172
:101BC00088818E7F888302EE10E0F80110821092E7
:101BD000DA0081EEC82ED12CF601108288818F7731
:101BE000888388818068888388818F7D888319BCF9
:101BF0001092EA021092B3011092AD021092B2015B
:101C000090EEE92EF12CF70180818B7F8083888113
:101C10008160888342E060E080E00E949B0DF601D5
:101C200080818E7F8083F8018081816080838081C4
:101C300088608083F70180818E7F808388818061C6
:101C40008883CDB7DEB7E8E00C943129E0914103F9
:101C50009091400327E0E91302C080E00895AE2F81
:101C6000B0E02E9FF0011124EE5BFC4F3181361362
:101C700006C03081381303C03581341304C0FD0120
:101C80003196E770E8CF81E008959C01FB014BB1EC
:101C9000477F5BB158606FB7F894CF01880F991FE9
:101CA0008E0F9F1F820F931F2817390741F46FBFB4
:101CB0008FE594E00197F1F700C000000895F90165
:101CC00071919F01E8E05BB9000000C077FF4BB95C
:101CD000770F000000C000C000C04BB900C0EA95FB
:101CE00091F7E2CF81E08093E00080E28093D8001A
:101CF0001092C9008FE19EE40197F1F700C0000047
:101D000087E090EBDC018093810390938203A093A2
:101D10008303B093840388E19CE00FB6F894A89500
:101D2000809360000FBE90936000FFCF0F931F93CE
:101D3000CF93DF938B01EA019091EA02943059F539
:101D40008093E9008FEF9091E80095FD06C095ED36
:101D50009A95F1F700008A95B1F78091E80085FF28
:101D60001AC00E944B0D811111C08091E80085FDC1
:101D700006C08091E8008E778093E800F2CFF801EA
:101D800081918F018093F100219779F78091E8008C
:101D90008E778093E800DF91CF911F910F91089586
:101DA000CF93DF93D82FC92F48E050E0682F792FC9
:101DB00081E00E94960E88E0ED2FFC2FADEBB1E0A4
:101DC00001900D928A95E1F7DF91CF910895BC01C2
:101DD00046E050E084E00E94960E0895BC0143E086
:101DE00050E084E00E94960E089590913E0392FB8D
:101DF000222720F9281779F080FB92F990933E036F
:101E000060913D0370913E0384E090E00E94302A8F
:101E100082E00E9424050895682F86E090E00E94E9
:101E2000122A089580912A0380FD13C08160809357
:101E30002A03813019F489E080932A0380912A03D0
:101E40000E940C0F80912A038695869586950E94A4
:101E5000320A089580912A0380FF08C08E7F809304
:101E60002A030E940C0F80E00E94320A08951F93FB
:101E7000CF93DF93962F122F632F8430D8F49C30AA
:101E8000C8F44930B8F4C42FD0E0CC0FDD1F22E1F4
:101E9000929FC00DD11D112498ED899FC00DD11DB9
:101EA0001124CE0188960E94122A612FCE018996B4
:101EB0000E94122ADF91CF911F910895AF92BF9295
:101EC000CF92DF92FF920F931F93CF93DF93A12CBA
:101ED000B12C00E0650110E013C0FE0125913591A1
:101EE0004F2D612F802F0E94370F2296F39489E0A7
:101EF000F812F3CF89E0C80ED11C1F5F1C3039F0F7
:101F0000E601CC0FDD1FC05EDD4FF12CE6CF0F5F89
:101F10008CE6A80EB11C0430E9F6DF91CF911F9139
:101F20000F91FF90DF90CF90BF90AF900895CF9327
:101F3000DF93C8E8D3E060E0CE010E94122A219628
:101F4000C11584E0D807B9F7DF91CF910895CF93F9
:101F5000C82F64E2811101C06FEF84E290E00E941B
:101F6000122A68E0C11101C06FEF85E290E00E9483
:101F7000122A60E2C11101C06FEF86E290E00E9478
:101F8000122ACF91089580E00E94A70F60E087E2B7
:101F900090E00E94122A0E945E0F0E94970F81E03B
:101FA0000E94A70F089586E090E00E94EE2980939A
:101FB0002A0382FD05C08DE180932A030E940C0F45
:101FC00080912A03803220F08770886180932A03F1
:101FD00090912A03892F817090FF04C0892F8695E4
:101FE000869586950E94320A08950F931F93CF938A
:101FF000DF93843030F56C3020F5493010F5C42F74
:10200000D0E0CC0FDD1F22E1629FC00DD11D112455
:1020100038ED839FC00DD11D1124CE0188960E94FA
:10202000EE29082F10E0102F0027CE0189960E947C
:10203000EE299801282BC901DF91CF911F910F91B3
:10204000089580E090E0F8CF462F672F7C3038F479
:10205000493028F4843018F40E94F50F089580E088
:1020600090E00895A0E0B0E0E8E3F0E10C941629D8
:102070007C0100913B0380913A03082BC3E0D0E040
:1020800010E0C8010C2E02C0959587950A94E2F7DE
:1020900080FD09C02197A8F7D12C8D2DCDB7DEB7D3
:1020A000E7E00C943229DC2EB7018C2F0E9424101B
:1020B0000E943406019771F3F0CF0F931F93CF93D3
:1020C000FC01858100811181811591F0611581F0FC
:1020D000C8010E943210C82F682FC8010E948F04C7
:1020E000B8018C2F0E942410CF911F910F91089559
:1020F000C8010E94C504C82FF3CFCF93DF93D82F18
:10210000C92F0E9432106D2F7C2F0E9424100E9434
:102110003406DF91CF910895FC0184818115A1F0EF
:10212000808191810E947D10282F92959F7096301A
:1021300099F060F4925F9F70923030F4203FB1F0DC
:1021400038F481E0283E38F080E008959A5FF3CFBC
:1021500081E0243FC9F7089591E0213F09F090E024
:1021600081E0283E08F080E0892B089581E0089501
:1021700084E290E00E94EE29843289F485E290E0C6
:102180000E94EE29883059F486E290E00E94EE2900
:1021900091E0803209F090E0892F8170089580E00D
:1021A000FCCF8091370390913F03892B40913803F6
:1021B000411589F090E026EA31E0F90150812F5F66
:1021C0003F4F51119F5F51E02C3A3507B1F7911104
:1021D00010923803842B8093A40148E050E06FEE06
:1021E00072E084EA91E00E94E129892BA9F088E05D
:1021F000E4EAF1E0AFEEB2E001900D928A95E1F7EA
:10220000E091ED02F091EE02309731F00280F3811F
:10221000E02D84EA91E009950895CF931092370359
:10222000C6E0E6EAF1E0DF018C2F1D928A95E9F71E
:1022300080E090E00E943D0B80E090E00E94630B04
:1022400010923F030E94D110E4E2F3E0DF011D92FF
:10225000CA95E9F7109222031092210310922303EA
:102260000E94BA0BCF9108950E940D112FEF84E3C5
:102270009CE0215080409040E1F700C0000088E1E0
:102280009CE00FB6F894A895809360000FBE9093E1
:102290006000FFCFAAE2B0E0E0E5F1E10C941A297A
:1022A00085EB91E0FC0101962091F100208321E073
:1022B0008D3B9207B9F78091B601893009F456C079
:1022C000C8F4823009F4B3C0833009F482C081308D
:1022D00071F18091E80083FFE7C08091B501909192
:1022E000B6019A3008F0E0C0E92FF0E0E254F54D75
:1022F0000C94EF288A3009F489C08B3051F7809113
:10230000B501813231F78091B9019091BA01892BE1
:1023100001F78091E800877F8093E8000E942C0DF0
:102320008091B701809304010E940D11D2CF80915A
:10233000B501813A71F68091E800877F8093E800CB
:102340008091B9019091BA01892B61F060E080E041
:1023500090E070E00E94D30C8091E8008B7780932E
:10236000E800B7CF68E08DEB91E0F3CF8091B50145
:10237000813209F0AECF8091B9019091BA018D7F81
:10238000892B09F0A6CF8091E800877F8093E80031
:102390008091E80082FF18C09091F3008091F200D4
:1023A000029731F48091F100813011F0863021F4F0
:1023B0008091F1008093C5018091E8008B77809334
:1023C000E8000E942C0D85CF8091EA028111E0CFB8
:1023D00080CF8091B501813A09F07BCF8091B9011E
:1023E0009091BA01892B09F074CF8091E800877F22
:1023F0008093E8008091E80080FFFCCF8091040189
:102400008093F1008091E8008E77D9CF8091B5015B
:10241000813209F05ECF8091E800877F8093E800E9
:102420000E942C0D8091B8018093B10152CF809110
:10243000B501813A09F04DCF8091E800877F809304
:10244000E8008091E80080FFFCCF8091B101D8CFF7
:10245000803889F0823841F58091B9018F708730DA
:1024600018F58093E9008091EB0085FB882780F9BF
:102470001092E90006C08091AD02880F9091B201E0
:10248000892B9091E800977F9093E8008093F1006A
:102490001092F1008091E8008E7723C0811116C060
:1024A0008091B701813011F18091E80083FF0AC06B
:1024B0008091E800877F8093E8008091EB00806244
:1024C0008093EB00AA96E3E00C943629823061F702
:1024D0008091B701811589F01092E9008091E800A0
:1024E000877F8093E8000E942C0DDECF81E093303F
:1024F00009F080E08093AD02EFCF8091B9018F7039
:102500002FEF280F263080F68093E9002091EB0012
:1025100020FFE2CF933031F48091EB008062809312
:10252000EB00DACF9091EB0090619093EB0021E00B
:1025300030E0A90102C0440F551F8A95E2F740938D
:10254000EA001092EA008091EB008860E8CF8111E8
:10255000ABCF1091B7011F778091E3008078812B7A
:102560008093E3008091E800877F8093E8000E94D9
:102570002C0D8091E80080FFFCCF8091E300806803
:102580008093E30083E0111101C082E08093EA02AE
:102590008BCF8058823008F087CF8091B70190911F
:1025A000B8018C3D53E0950799F583E08A838AE270
:1025B00089834FB7F894DE01139620E03EE051E2A4
:1025C000E32FF0E050935700849120FF03C08295E1
:1025D0008F703F5F8F708A30C8F0895C90E08D9378
:1025E0009D932F5F243161F74FBF8091E800877F73
:1025F0008093E8006AE270E0CE0101960E94D30C5D
:102600008091E8008B778093E8004ECF805DE6CF25
:10261000292F33272330310509F44DC078F52130B7
:10262000310509F47CC08BE590E0EDE8F1E0223063
:10263000310509F039CF2091E800277F2093E80089
:102640002091BB013091BC018217930708F49C01D3
:1026500040E02115310509F067C0411165C0809146
:10266000E80082FDCDCF8091EA02811549F28530E4
:1026700039F28091E80083FFF2CFC2CF8091B90197
:102680009091BA0121323105D9F12232310509F098
:102690000BCF8330910508F007CFFC01EE0FFF1F31
:1026A000E05EFE4F0190F081E02D835E9E4FDC01E5
:1026B0008C9190E011C09C013327813089F0223049
:1026C0003105B1F0232B09F0EFCEECE1F2E0E4911B
:1026D0008E2F90E0ECE1F2E0009709F4E5CEABCF6D
:1026E000E6E0F2E0E4918E2F90E0E6E0F2E0F4CF55
:1026F000EAEFF1E0E4918E2F90E0EAEFF1E0ECCF29
:102700008330910508F0D0CEFC01EE0FFF1FEA5D8B
:10271000FE4F0190F081E02D89E090E08CCF82E1C6
:1027200090E0E8EEF1E087CF8091EA02811509F4AC
:1027300067CF853009F464CF8091E80083FD60CFD6
:102740008091E80082FD8BCF8091E80080FF81CFEF
:102750009091F3008091F2002115310519F0883035
:10276000910550F041E0089709F040E08091E800C1
:102770008E778093E8006DCF44914093F1003196BD
:10278000215031090196E8CF803809F08DCE809133
:10279000E800877F8093E8008091B3018093F10087
:1027A00079CE811181CE1091B701123008F07CCE24
:1027B0008091E800877F8093E8001093B3010E9426
:1027C0002C0D1115D1F084E08093EA0242E061EC17
:1027D00081E00E949B0D42E261EC84E00E949B0D2F
:1027E00042E261EC82E00E949B0D42E260EC83E0F9
:1027F0000E949B0D8091EA0257CE8091E30087FDF5
:10280000E2CF81E0E1CFCF93C82F8115C9F08238A4
:10281000C9F40E94300B81FD13C089E30E94890B2B
:102820000E94D1102FEF37EE83E0215030408040DE
:10283000E1F700C0000089E30E94A20B0E94D110C2
:10284000CF9108958338A1F40E94300B80FDF8CF1A
:1028500083E50E94890B0E94D1109FEF21EE34E0A6
:10286000915020403040E1F700C0000083E5E4CF04
:102870008438A1F40E94300B82FDE2CF87E40E94ED
:10288000890B0E94D1108FEF91EE24E0815090408F
:102890002040E1F700C0000087E4CECF8CEF8C0F22
:1028A000813A70F4E6EAF1E08CEA91E02191C217F6
:1028B000D9F18E179F07D1F78C2F0E94890BBECFBD
:1028C00080E28C0F883068F4C77021E030E001C0EE
:1028D000220FCA95EAF780913703822B8093370342
:1028E000ADCF8BE58C0F833038F42C2F2452330B73
:1028F000C9010E943D0BA4CFE8E5EC0FEB3150F489
:10290000F0E0EE0FFF1FE459FE4F808191810E949D
:10291000630B96CF83E38C0F833108F091CF61E096
:102920008C2F0E94E20B8CCF8C2F0E94A20B0E9456
:10293000D110C2CF811509F456C0823879F40E94B3
:10294000300B81FF50C089E30E94890B0E94D11097
:1029500089E30E94A20B0E94D1100895833859F494
:102960000E94300B80FF3FC083E50E94890B0E94CC
:10297000D11083E5EECF843859F40E94300B82FFEA
:1029800032C087E40E94890B0E94D11087E4E1CF16
:102990009CEF980F913AE8F290E2980F983050F43B
:1029A000877091E001C0990F8A95EAF7892F0E94FC
:1029B0003C05D1CF9BE5980F933028F480E090E060
:1029C0000E943D0B089598E5980F9B3128F480E014
:1029D00090E00E94630B089593E3980F933118F4ED
:1029E00060E00E94E20B08950F931F93CF93C82FCE
:1029F0008B010E9403140115110539F48C2F0E94DC
:102A00009A14CF911F910F9108958FE99FE001973C
:102A1000F1F700C0000001501109EDCF811539F028
:102A200090913703892B809337030E94D11008952A
:102A3000811521F00E943C050E94D1100895FF925B
:102A40000F931F93CF93DF93C62FD42F122F81158F
:102A5000A9F060932B030E94AE0B9093B00180937A
:102A6000AF01C77081E001C0880FCA95EAF70E94E4
:102A70000E15CDB7DEB7E5E00C94342980912B0319
:102A8000681332C08091AF019091B0010E94C00CD8
:102A9000883C910548F500E20D0FCD17A9F0C770ED
:102AA000FF24F3948F2D01C0880FCA95EAF70E9486
:102AB0001815083048F48D2F877001C0FF0C8A95D7
:102AC000EAF78F2D0E940E1560E070E0812F0E94C2
:102AD000F414083070F6D77081E001C0880FDA95E1
:102AE000EAF70E941815C5CFC77081E001C0880FB2
:102AF000CA95EAF7F6CFA0E0B0E0E1E8F5E10C9482
:102B00000F29FC018280648081E08483E0E8F5E0A5
:102B10009490EFEFF5E0E4910091320306950158AF
:102B200010E0000F111F012F1127CEECD1E029E496
:102B3000C22E22E0D22EAA24AA94B12C77247A9411
:102B4000E919EE2EF12C83E0881630F480913003E1
:102B50008883809131038983611017C01B821A8298
:102B600096014A81698188810E945307259683E0F6
:102B7000C80ED11C82E0C634D80729F70E94FA0794
:102B8000CDB7DEB7EEE00C942B298B818115E9F0EF
:102B900081508B83789EC00111246C8170E00E946B
:102BA000C728FB01FF27E058FA4F8491E82FE91965
:102BB0007E9EC0011124B7010E94C7288091320374
:102BC000689FB00111247A83CBCF0E94C429B5013C
:102BD0000E94DB28801791071CF683E0881688F096
:102BE0000E94C429B5010E94DB2888830E94C42961
:102BF000209131032695622F70E00E94DB28280F78
:102C000029831A8280913203893C20F088EC8C83DE
:102C10008B83A6CF8431D8F784E1F9CFA0E0B0E070
:102C2000E4E1F6E10C9415298901D42FC52F6B013D
:102C30007C010E94E507A8016D2F7C2F88E090E0C1
:102C40000E94242A98014D2F5C2FB601C70100E293
:102C50000E945D29622F83E290E00E94122ACDB784
:102C6000DEB7E8E00C94312980913303833018F407
:102C70008F5F8093330320912F0330913003409175
:102C8000310350913203609133037091340380918A
:102C90003503909136030E940E16089580913303F8
:102CA000811519F081508093330320912F033091C7
:102CB000300340913103509132036091330370919E
:102CC000340380913503909136030E940E160895C7
:102CD000A3E0B0E0EEE6F6E10C940E29F82E762E95
:102CE000E42E622E90912F0390FF2FC0E92FE695DE
:102CF000E695AE2FB0E0A45DBE4F8C9180932D037E
:102D00009C7F943031F59E012F5F3F4F8F2D0E94A5
:102D100053074B8169818A810E94A409F092300394
:102D200070923103E0923203611479F020912F0305
:102D300060913303709134033F2D472D5E2D8091B8
:102D40003503909136030E940E162396EFE00C9403
:102D50002A29823019F4E0903203E0CF863019F44A
:102D6000F0903003DBCF8930D9F38931B9F6E951DE
:102D70008E2F8170582EE695F0E0E058F94FE491DF
:102D80000E2F10E089E4C82E82E0D82EA12CB12CA1
:102D900098E1892E912CC501B4010E94C7288F2D7E
:102DA000511013C0860F96014E2D672D0E945307B8
:102DB000A00EB11E83E0C80ED11C81E9C81682E0C6
:102DC000D80649F70E94FA07A9CF861BECCFEFE29D
:102DD000F3E0818121E043816281885F0E9468166F
:102DE0000895EFE2F3E0818121E043816281885020
:102DF0000E9468160895EFE2F3E0628128E0620F16
:102E000008F46FEF21E0438181810E9468160895E4
:102E1000EFE2F3E0628128E0621B08F460E021E069
:102E2000438181810E9468160895EFE2F3E04381B7
:102E300028E0420F08F44FEF21E0628181810E9477
:102E400068160895EFE2F3E0438128E0421B08F49E
:102E500040E021E0628181810E94681608956091BE
:102E60002F036695669570E04BE050E088E091E0B6
:102E70000E94D429892B19F481E080932E030E94AB
:102E8000AE0B9093C8028093C702089590912F03D0
:102E900090FF3BC08115D1F18B32D0F58F73282F75
:102EA000220F220F80912F038370282B20932F0352
:102EB000611581F03091300340913103509132031C
:102EC0006091330370913403809135039091360300
:102ED0000E940E1660912F036695669570E04BE098
:102EE00050E088E091E00E94D429892B99F010925B
:102EF0002E0381E08093CA0220E04091320360916A
:102F00003103809130030E946816089581E0C7CF95
:102F10008AE2C5CF0E942F17ECCF80912F038695B0
:102F200086958F5F8B3208F081E061E00E94461742
:102F3000089580912F03869586958A9509F48AE2F3
:102F400061E00E944617089561E00E9446170895C7
:102F500090912F0390FF09C096959695981728F0A9
:102F6000961718F40E948D1708950E94A4170895CB
:102F7000A8E0B0E0EEEBF7E10C940B295C01FC015A
:102F80008481811509F4AAC061E0C5010E945D1029
:102F90008C01F5018581811509F441C1C80197575C
:102FA0008038910508F06FC1003108F087C08FEFBD
:102FB00093E00E94EE29811181C048E8E42E43E0AD
:102FC000F42E01114FC0CE0101964C0188E0F401AE
:102FD00011928A95E9F73AE0332E87010F5F1F4F70
:102FE000C7010E94EE2989831A82811509F466C0FF
:102FF000813009F077C06701F2E0CF0ED11CC80123
:103000000E94EE298A83811509F458C09FEF980F1A
:103010009330B8F523E0E20EF11CC6010E94EE29C0
:103020008B83811509F44AC01C828401F801208138
:10303000211599F2213009F096C08181813009F083
:1030400053C06801F2E0CF0ED11CF801828160E527
:10305000893309F060E070E00E94F41486010F5F8C
:103060001F4FE4CFE114F4E0FF0641F1C7010E94D5
:10307000EE2997012F5F3F4F79018111F3CF015066
:10308000A0CF8430A1F402E010E0C6013FEFC31AE4
:10309000D30A0E94EE29F401E00FF11F808381150D
:1030A00069F08C3731F4FE01E00FF11F12827601D6
:1030B000BCCF0F5F1F4F0730110539F780913C03DC
:1030C0008770811559F0F5018581811539F080915E
:1030D0003E0382FF03C082E00E9424052896E2E1BD
:1030E0000C9427297801A1CF823049F46801F2E0DD
:1030F000CF0ED11CF80182810E940314AFCF833020
:1031000049F46801F2E0CF0ED11CF80182810E94DF
:103110009A14A4CF843019F00F5F1F4FA0CF2281E3
:103120000E5F1F4F80E090E0A8014F5F5F4F20537C
:10313000330B2A30310558F0009709F490CFEFE9AE
:10314000FFE03197F1F700C000000197F5CF389EFE
:10315000B001399E700D1124C901860F971FF80127
:1031600021818A01E1CFE22FF0E0E653F84F24906D
:10317000822F86958695869590E0FC01E654F84F5F
:10318000E4912770F0E0022E02C0F595E7950A94CD
:10319000E2F7E1704E2E5524FC01E655F84FE4911C
:1031A000F0E0022E02C0F595E7950A94E2F7E1708F
:1031B0006E2E7724FC01E656F84FC490D12C02C045
:1031C000D594C7942A95E2F7C0FACC24DD24C0F840
:1031D0004114510419F081EE0E940314611471042A
:1031E00019F086EE0E94031460E070E0822D0E94C8
:1031F000F4146114710419F086EE0E949A144114BB
:10320000510419F081EE0E949A14C114D10409F4FA
:1032100026CF60E070E08CE20E94F41420CF769A12
:10322000F5013581311509F493C00330F8E71F0724
:1032300009F443C050F5013088E71807B1F10230B6
:1032400098E7190709F468C083E00115E8E71E074D
:1032500069F110922B03C8019057839708F07EC440
:1032600084E090E00E94FC2990933E0380933D030C
:10327000F801E150F047E232F10508F092C0E8535E
:10328000F54D0C94EF287698CBCF0430F8E71F0764
:1032900079F1053028E7120709F448C0F801E85130
:1032A000FC47E730F105A8F65AC080E00E94C40A46
:1032B00080912A030E940C0F01CF80912A0388304D
:1032C00078F0885080932A0391E0883008F490E0E9
:1032D00080912A0390FB80F980932A030E940C0FAF
:1032E00080912A038695869586950E94320AE6CEBD
:1032F00090912A03892F869586958695983140F47A
:103300008F5F880F880F880F9770892B80932A030F
:1033100080912A038160E0CF80912A0380FF03C05F
:103320000E942A0FCBCE0E94120FC8CE80912A0392
:103330008695869586958F5F8F71843008F080E042
:10334000880F880F880F90912A039770892BBACF26
:10335000F801E851FC47E730F10508F016C4E651E2
:10336000F54D0C94EF2826E241EE61EE832F0E948A
:103370001F15A4CE27E245EE65EEF8CF26E241EE1A
:1033800060EEF4CF27E245EE64EEF0CF26E241EEA8
:1033900062EEECCF27E245EE66EEE8CF28E241E0B0
:1033A000EBCF80913D03816080933D0360913D03AD
:1033B00070913E0384E090E00E94302A0E940D113B
:1033C0007DCE80913E03886080933E03EFCF809155
:1033D0003D038260E9CF80913D038460E5CF809119
:1033E0003D038860E1CF80913E038160EDCF809105
:1033F0003E038260E9CF80913D038061D5CF80910B
:103400003D038062D1CF80913D038064CDCF0E9487
:103410000D1180913D038068C7CF80913D038C6082
:10342000C3CF80913E038360CFCF80913D038E7FD9
:10343000BBCF80913E03877FC7CF80913D038D7FB7
:10344000B3CF80913D038B7FAFCF80913D03877FCA
:10345000ABCF80913E038E7FB7CF80913E038D7FAF
:10346000B3CF80913D038F7E9FCF80913D038F7DB1
:103470009BCF80913D038F7B97CF0E940D11809150
:103480003D038F7791CF80913D03837F8DCF8091D6
:103490003E038C7F99CF80913D03992782FF9395BE
:1034A00090FB82F990FB83F97FCF80913E03982FA8
:1034B000909590FB80F990FB81F986CF90913D0328
:1034C000892F8F7B96FF80646FCF0E940D119091A2
:1034D0003D03892F97FB87F9805866CF61E08EE026
:1034E00090E00E94122A62CF60E0F9CF90913D03F4
:1034F000892F8F7E94FF806157CF90913D03892F54
:103500008E7F90FF816050CF90913E03892F877FFF
:1035100093FF886059CF89E233C389E241C30737FB
:103520008CE7180709F092C081E00E94730443E021
:1035300062E081E00E94F904C1CD8091370382727C
:10354000F801E052F847E531F10508F07AC0EF5094
:10355000F54D0C94EF2820912F0320FF18C02E7FEB
:1035600020932F0330913003409131035091320367
:103570006091330370913403809135039091360349
:103580000E940E1610922E030E94FA0797CD822FEA
:10359000816080932F03869586950E94A4178ECD17
:1035A00049E957E16DE877E10E942B0A87CD4DE8A4
:1035B00057E169E977E1F8CF41EF56E167EE76E14F
:1035C000F3CF47EE56E161EF76E1EECF48E057E109
:1035D0006BEF76E1E9CF4BEF56E168E077E1E4CFBE
:1035E00042E257E165E177E1DFCF45E157E162E291
:1035F00077E1DACF4EE456E164E376E1D5CF44E3F8
:1036000056E16EE476E1D0CF81E0C7CF65E082E09D
:103610000E94A81753CD68E086E0FACF6EE089E0FB
:10362000F7CF64E18FE0F4CF67E185E1F1CF88E186
:10363000B4CF62E289E1ECCF83E2AFCF6AE285E208
:10364000E7CF07379CE7190709F469C00837ECE7AB
:103650001E0709F468C03115A9F00A35FCE71F07F9
:1036600009F48BC008F063C001303CE7130709F48C
:1036700082C003308CE7180709F477C001151C4796
:1036800009F466C0F5018581E080F180811509F4B7
:1036900078C0C7010E943210182F682FC7010E94FE
:1036A0008F04B701812F0E9424100E9434068C01E0
:1036B000F501D580C680C2942FE0C22280913C03E0
:1036C0008770811501F1ED2CD114F1F0812F807FED
:1036D000803461F080E2800F8830A8F0812F807EF6
:1036E000803221F4023078F0C11469F080913E03F9
:1036F00082FF09C082E00E94240580913C0387700C
:10370000EE24E3948111E12CE12FE295EF70103C5F
:1037100008F0A2C0F0E0EA5FF44D0C94EF2881E0DD
:103720000E947F0404CF82E03115D1F3FECE0B3529
:10373000ECE71E0721F180913E03002482FF0394F1
:10374000802D0C351C4709F09DCF0E94F50E9ACFB5
:103750000E940D112FEF34E38CE021503040804067
:10376000E1F700C000000E94720E6FEF7FEF80E073
:1037700090E00E94302A0E94341181E0E6CF80E080
:10378000E4CFC7010E94C504182F8BCFF12FFF7023
:10379000FF2E103118F0F29490EFF922D114B9F005
:1037A000F11469F080E2800F883010F0011109C037
:1037B000809137038F29809337030E94D110802F87
:1037C00043C080913F038F2980933F03F6CF802F22
:1037D0000E949A14F11409F43FC080E2800F8830EF
:1037E00010F0011104C08F2D0E943C0506C0F0941A
:1037F00080913F038F2180933F030E94D1102CC002
:10380000212F2F70F22E107F103219F0F29480EFDA
:10381000F822011549F0013009F46BC0D11409F404
:1038200077C0C114C9F1CBCF80913E0382FD30C077
:10383000D11469F0F11439F0809137038F29809306
:1038400037030E94D11080E00E94031405C080E07D
:103850000E949A14F110C7CFE114A9F080913C03A3
:1038600080FD11C0F50115828695869586950E948A
:103870007304C5010E94B81780913C038695869514
:1038800086950E947F0460E0C5010E945D1026CCF1
:10389000D11499F0C11004C08F2D0E940E15DCCFF9
:1038A00031E0C312D9CF809138039F2D9823F916A8
:1038B00099F28F2980933803CFCFC110CDCF8F2DB0
:1038C0000E941815909138038F2D8923811529F0B6
:1038D0008F2D8095892380933803809139039F2D04
:1038E0009823911509F4B8CFF094F822F092390397
:1038F000B3CFD11429F086E0C81608F0ADCFCCCFF5
:1039000095E0C91608F0A8CF8F2D0E941815A4CFF6
:10391000C114D1F3093349F4EFEFF7EE23E0E1509E
:10392000F0402040E1F700C00000802F0E949A1470
:1039300093CF812F869586958370811561F08130B4
:1039400009F08ACFC8019370D11002C080E090E0E6
:103950000E94630B81CFC8019370D11002C080E038
:1039600090E00E943D0B78CF6D2D802F0E94E20BDE
:1039700073CF812F8370811136C0D11027C0402FA3
:10398000429546954770440F440F802F8F70042E48
:1039900001C0880F0A94EAF7202F207104FF07C0A6
:1039A0002FE030E001C0220F4A95EAF720951695E6
:1039B00016951370123091F0133071F030913A0374
:1039C000113049F0822B83230E946D040E94300B3A
:1039D0000E945F0441CF832B822BF6CF822B9091E4
:1039E0003A038927F1CFD11451F110FFEFCF402FC7
:1039F000429546954770440F440F802F8F70042ED8
:103A000001C0880F0A94EAF7202F207104FF07C035
:103A10002FE030E001C0220F4A95EAF72095169575
:103A200016951370123089F0133069F030913B0312
:103A3000113041F0822B83230E947004C7CF823063
:103A4000B0F6C4CF832B822BF7CF822B90913B0310
:103A50008927F2CF1F70D11439F0812F0E9473048F
:103A6000802F0E940E15B2CF802F0E941815812F33
:103A70000E947F04ABCF023F71F170F4003FC9F0A8
:103A8000013F91F0D11409F455C0C11409F44FC09D
:103A9000802F0E9403149ACF033F21F1043F91F736
:103AA00090913E0392FD2AC0812F8F71D11401F3B2
:103AB00016C0D11469F035E0C31608F087CF1F7126
:103AC00081E090E0012E01C0880F0A94EAF7BECF92
:103AD00086E0C816F2CF812F8F71D110C9CF0E9416
:103AE000730474CF80E0D11409F4A6CF1F7181E074
:103AF000012E01C0880F0A94EAF79ECFD11461F01D
:103B0000812F8F7192FFEBCF982F990F990F990FFB
:103B1000936090933C03E3CF81E00E94240592E000
:103B2000C91608F453CF82E00E9424054FCF812F9D
:103B30008F71D5CFC11479F0093349F4EFEFF7EE67
:103B400023E0E150F0402040E1F700C00000802F6A
:103B50000E949A143BCF812F8F718ACF0631FCE7E8
:103B60001F0709F0DCCC809137038A7A91E081113C
:103B700001C090E090932C03811509F4CCCC85E32F
:103B80000E94890B0E94D11099CA06312CE71207B6
:103B900009F0D3CC80912C03811509F4BECC85E3C8
:103BA0000E94A20BEFCF80918003803178F4809146
:103BB0007F03811559F0E09141032091400330913A
:103BC0007B0340917A0357E02E1301C008956E2FB6
:103BD00070E05E9FF0011124DF01AE5BBC4F1496D4
:103BE0008C911497811561F111968C911197831323
:103BF00027C08C91841324C015968C911597811140
:103C00001FC012968D919C91A0917C03B0917D0371
:103C10008A1B9B0B883C910598F4809180038F70E0
:103C2000806180938003E85BFC4F80818F708061AE
:103C300080838AE793E00E94B8170E941A050895CE
:103C4000FB013196E770C0CFADE0B0E0EAE2FEE103
:103C50000C940F298C0186E0F801DE011896019082
:103C60000D928A95E1F7F801F58084819AE7892E13
:103C700093E0992E60907E03611018C0811599F031
:103C8000F11409F415C1C8010E948C10811509F4C2
:103C90000FC187E0F801AAE7B3E001900D928A9581
:103CA000E1F70E94D31DFF24F39456C07080A280D8
:103CB000B380D0907F0320917C0330917D03A501D8
:103CC000421B530BD11409F4C3C0483C510508F002
:103CD00079C0811541F380917B03C180E09080031E
:103CE00050E1E51608F059C0C81215C080917A035A
:103CF000871111C0F1104BC08E2D8F7080618093A1
:103D000080038AE793E00E94B81780918003F8014E
:103D10008683F12C21C0F1103AC040E06C2D872D34
:103D20000E94260E40E06C2D872D0E94260EF82E54
:103D30008111EFCF888599850E947D10292F2295CA
:103D40002F70903470F49F702230A0F09115B1F074
:103D5000F8019681903190F48F2D2D96EEE00C9421
:103D60002B292A5F2F70223068F0C8010E94B817F3
:103D7000FD2CF2CF911511F0811571F3805E883022
:103D800058F3F3CF803F40F3815F8330F9CF8091C8
:103D90008003816080938003BCCFC8123BC08091B8
:103DA0007A03871137C0F11035C0E682C8010E943E
:103DB000B81787E0F801AAE7B3E001900D928A9561
:103DC000E1F771CFE0908003F0E1EF1650F48AE75D
:103DD00093E00E94B81787E0F40111928A95E9F701
:103DE00098CF811509F45FCF90917B03F801818111
:103DF000981310C080917A0387110CC0F1100AC08B
:103E0000E682C8010E94B81787E0F40111928A95F2
:103E1000E9F749CFC8010E948C10811509F448C008
:103E2000F11409F445C080918003803208F431CF49
:103E300080917A0390917B039A838983BC82AB82C1
:103E40006D821E82EF82CE0101960E94B81721CFAB
:103E5000483C510508F0BFCF811509F424CFF11477
:103E600039F190917B038181981318C080917A0376
:103E7000871114C08091800380FD9BCF803108F4AE
:103E800098CF8683807F803F09F490CF8681982FDA
:103E9000907F905F8F70892B868388CFC8010E94A6
:103EA0008C108111F6CE8091800381608093800315
:103EB000C8010E94B817F7CEABE1B0E0E2E6FFE13F
:103EC0000C9419294E8B5F8B688F798F8A8F192FED
:103ED0009B8F911110923F031D8A86E0FE0176961A
:103EE000DE011F9601900D928A95E1F70A8D01156A
:103EF00039F00B8B1C8B61E0CE010F960E945D1098
:103F00000B8B1C8B87E0FE013F96DE01189601901B
:103F10000D928A95E1F7CE0108960E94241E811128
:103F200028C0209140033091410387E0FE0138967C
:103F3000DE01119601900D928A95E1F78C8581152D
:103F4000C1F0822F90E001968770992738171906E3
:103F5000D9F097E0929FD0011124AE5BBC4FFE01D7
:103F6000319601900D929A95E1F7809340030E945B
:103F70001A0517E08091410390914003891312C004
:103F80006B96E4E00C9435290E940D1110924003C9
:103F90001092410387E0EAE7F3E0DF011D928A9582
:103FA000E9F7E7CF189FC00111248E5B9C4F0E9458
:103FB000241E811529F38091410390E001968770BA
:103FC000992780934103D6CFA6E0B0E0EAEEFFE167
:103FD0000C9419290E94AE0B8C018091EB029091F8
:103FE000EC028017910779F019821A820E94AE0BB9
:103FF000BC0149815A8180E090E00E945C1F1093CF
:10400000EC020093EB022696E4E00C943529EFE2F3
:10401000F3E080818160808360E0869586950E94D0
:1040200046170895A8E1B0E0E8E1F0E20C940D290C
:10403000FE01319688E1DF011D928A95E9F797E547
:10404000C92E91E0D92E8F012F0166246394712C23
:104050003CE6832E31E0932EF60181916F018F3F74
:1040600009F445C0F894E82FE295EF70F0E021A143
:104070008F70A30102C0440F551F8A95E2F7CA0151
:10408000922F982B91A392A18095892382A3789453
:1040900000C0E3E6F1E021E030E0A12CB12C419139
:1040A0004F3F81F0A42FA295AF70A05EB0E08C913D
:1040B00090E04F7002C0959587954A95E2F7790197
:1040C00080FF02C0E12CF12CAE28BF28220F331F45
:1040D0008E169F0621F7F60182918F3F11F00E9404
:1040E000390750EA5A95F1F7D801AD92BC920E5FAC
:1040F0001F4FB3E6CB16B1E0DB0609F0ADCF48E1C8
:1041000050E0B20181E992E00E94E129892BA9F0F7
:1041100088E1F201A1E9B2E001900D928A95E1F700
:1041200081E08093AE010E94AE0B9093AD0180932D
:10413000AC016896E0E10C9429298091AE018115CB
:10414000C1F38091AC019091AD010E94C00C059724
:1041500080F348E150E061E972E082ED92E00E9474
:10416000E129892B49F088E1E1E9F2E0A2EDB2E032
:1041700001900D928A95E1F71092AE01DACFCDB79A
:10418000DEB7AC970FB6F894DEBF0FBECDBF85B7D4
:10419000806885BF85B7806885BF84B7877F84BF07
:1041A0000FB6F894A89580916000886180936000B4
:1041B000109260000FBE80E890E00FB6F8948093F4
:1041C0006100909361000FBE87E397E09093A30195
:1041D0008093A2010E947C0D0E94CB0D8091E20091
:1041E00084608093E20078948091EA02811599F0CE
:1041F0008091E9001091EC008F70179511271795A9
:10420000182B1092E9008091E80083FD0E944A116A
:104210001F701093E90082E084BD93E095BD9AEF92
:1042200097BD80936E000E94B810811102C00E9459
:10423000C30F07E511E0A3E6AA2EA1E0BA2ED8012C
:104240008D918D018F3F11F00E943907A016B106A4
:10425000B1F703E611E0FCE6AF2EF1E0BF2EF80166
:1042600081918F018F3F11F00E943907A016B1068E
:10427000B1F788E1E2EDF2E0DF01A82E1D92AA94E9
:10428000E9F7E1E9F2E0DF011D928A95E9F7559A35
:104290006E9A80E090E00E94FC29853E9E4F21F4BA
:1042A0000E94B810811175C065EE7EEF80E090E04D
:1042B0000E94302A60E082E090E00E94122A81E0B1
:1042C00080933A0361E083E090E00E94122A60E06C
:1042D00074E184E090E00E94302A60E086E090E0A3
:1042E0000E94122A60E087E090E00E94122A40E0DB
:1042F00050E0BA0188E090E00E94242A60E083E266
:1043000090E00E94122A60E08CE090E00E94122A65
:1043100060E08DE090E00E94122A19821A821B82CE
:104320001C821D821E821F82188648E050E067E1D1
:1043300070E0CE0101960E94022A40E050E0BA01EE
:104340008FE190E00E94242A80E00E94A70F0E9443
:10435000C30F80912F03816080932F0386958695EC
:104360000E94A41721E040E86FEF80E00E946816E9
:104370008BE00E94A41740E050E0BA018FE090E08B
:104380000E94242A40E050E0BA0183E190E00E94BC
:10439000242A82E090E00E94EE298093AE0284E01D
:1043A00090E00E94FC2990933E0380933D030E947D
:1043B0001220EFEFF6E701E0E150F0400040E1F7B6
:1043C00000C000000E9412208091D20280FF08C02D
:1043D0006FEF7FEF80E090E00E94302A0E94720E23
:1043E00083E090E00E94EE290E946D04279A2F98A6
:1043F0008AE08093800089E1809381008FEF9FEFB6
:1044000090938700809386000E94D30F0E94D30F61
:104410008091A902811192C088E090E00E94F62963
:1044200069A77AA78BA79CA783E290E00E94EE2958
:10443000282F30E040E050E060E070E080E090E065
:1044400000E20E944229C9A4DAA4EBA4FCA456010C
:104450006701E12CF12C8701A9A2BAA2CBA2DCA2B0
:10446000EDA2FEA20FA318A7D9A42D293B294C2900
:10447000ECA05E2920932F03309330034093310347
:104480005093320360933303709334038093350366
:1044900090933603243008F03FC025E020932F038B
:1044A000109230032FEF2093310328EC2093320336
:1044B0001092330325E030E04FEF58EC60E00E94AB
:1044C0000E1688E090E00E94F6292B013C0183E261
:1044D00090E00E94EE29282F30E040E050E060E0BC
:1044E00070E080E090E000E20E9442296301520106
:1044F00024293B294C295D2920932F033093300335
:104500004093310350933203609333037093340329
:1045100080933503909336030E94E50710922E0393
:104520000E94DB0A80912F0380FF05C060E0869522
:1045300086950E94461781E08093A90283E191E06D
:104540009093EE028093ED028091EA028530B1F4FF
:104550008091EA02853009F467C00E940D110E9423
:10456000D30F0E94300B0E945F041092AC02809126
:10457000AB0281110E9407200E942F170E94122077
:104580007FEAC72E72E0D72EE2ED6E2EE2E07E2E9D
:10459000D301F601219131918D919D9142E0E73C4B
:1045A000F40709F4B0C028173907A1F3512CD3013F
:1045B0000D911D913D01F601A190B1906F01A016E2
:1045C000B10659F1A026B126412CEE24E394F12C3A
:1045D000C5018E219F21892BB9F049825A820E9400
:1045E000AE0B9C838B83F1E0FD8391E098012E213B
:1045F0003F21232B09F490E09E8349815A816B81EE
:104600007C818D810E945C1F4394EE0CFF1C29E08D
:104610004212DECFF6011293029353944CE05412EF
:10462000C6CF0E94B40C75C08091EA02843009F4B0
:104630003FC080E00E94C40A80E00E945F041092A4
:104640002E038091AC0281110FC0FF24F394F092ED
:10465000AC0280912F03982F91709093AB028E7FC4
:1046600080932F030E94FA071092AA0208E110E03B
:1046700020E40FB6F894A895009360000FBE209335
:10468000600083B7817F846083BF83B7816083BF0D
:104690007894889583B78E7F83BF0FB6F894A895DA
:1046A00080916000886180936000109260000FBE6E
:1046B0008091AD02811509F44BCF0E941220E2EDEA
:1046C000F2E08AEE92E021913191232B21F48E17B2
:1046D0009F07C9F73DCF80E189BD82E189BD09B45B
:1046E00000FEFDCF8091D8008F7D8093D80080910F
:1046F000E00082608093E0008091E00081FDFCCFCB
:104700000E940D1125CF2817390709F04FCF0E94BD
:10471000E41F80912E03811509F444C080912D037C
:10472000E0912F03E695E695E81BE093C9028531F9
:1047300009F4A0C108F050C1893009F48FC108F014
:104740003CC1823009F474C1863009F47CC100EDAB
:1047500017E042E5E42E47E0F42E8091CA0281156D
:1047600061F01092CA020E94AE0B9093C80280932F
:10477000C7021092CC021092CB020E94AE0B209185
:10478000C7023091C802821B930B8F3F9F4750F4A2
:10479000200F311F3093C8022093C70287EC92E0AC
:1047A000F701099586E0E4E2F3E0DE01119601905D
:1047B0000D928A95E1F7D0902503F0902603109191
:1047C0002703E090280300912903109226031092FA
:1047D00027031092280310922903812F8F29811516
:1047E00009F440C08091CF029091D0020E94C00C89
:1047F0001C0180912203811509F42BC3F5E12F16CA
:10480000310480F18F3F19F08F5F80932203F11400
:1048100059F00E94EB0A91E01F140CF09FEF899F62
:10482000802D112480932603111559F00E94EB0A64
:1048300091E011160CF09FEF899F802D1124809339
:10484000270380912603811569F0C0902703C114C6
:1048500049F00E94DD0A809326038C2D0E94DD0A18
:10486000809327038E2D802B811509F440C0809101
:10487000CD029091CE020E94C00C4C018091210388
:10488000811509F4E0C221E58216910480F18F3F81
:1048900019F08F5F80932103E11459F00E940B0BF4
:1048A00091E01E140CF09FEF899F802D11248093BE
:1048B0002803011559F00E940B0B91E010160CF023
:1048C0009FEF899F802D11248093290380912803D5
:1048D000811569F0E0902903E11449F00E94DD0A96
:1048E000809328038E2D0E94DD0A809329038091F6
:1048F00025038D1119C080912603811511F08F11A8
:1049000013C020912703211511F021130DC09091A0
:104910002903911511F0901307C03091280331112C
:1049200003C0822B892B81110E94BA0B86E0FE0105
:104930003196A4E2B3E001900D928A95E1F70E94CE
:10494000300B182F8091D102181739F01093D10233
:104950000E94B40C812F0E945F048091EA0284308F
:1049600009F0F2CD83E08093E9008091E80082FFB6
:10497000EBCD8091E80090E085FF0CC00E944B0DCC
:1049800060E2E62EF12C8E010F5F1F4F811509F4B6
:104990008DC091E08091E8008B778093E8009115BD
:1049A00009F4D2CD8981EFEFE80FE33108F098C028
:1049B000F0E0EE5EF44D0C94EF288F3009F0C7CE96
:1049C000E695F0E0E357F84FE4910E2F10E089E30D
:1049D000E82E88E0F82EC1CE843209F456C0A8F43F
:1049E00008E210E078EEE72E78E0F72E883109F43F
:1049F000B4CE833209F0ABCEE8E8F7E0059115912B
:104A0000A5EBEA2EA9E0FA2EA8CE853209F09FCEBA
:104A10008E2F63E00E94AD28E92FF0E0EB57F84FAE
:104A2000E4910E2F10E0FBE7EF2EF5E1FF2E95CE7F
:104A3000F0E0EA56F84FE4910E2F10E037E1E32E54
:104A40003AE0F32E8ACEF0E0ED56F84FE4910E2FC7
:104A500010E027E0E22E2AE0F22E7FCEE695F0E08D
:104A6000E057F84FE4910E2F10E09FE0E92E98E018
:104A7000F92E73CEF0E0E657F84FE4910E2F10E0D8
:104A8000BAE9EB2EB8E0FB2E68CE04EF11E0EDE6BC
:104A9000EE2EE9E0FE2E61CE8091F100D8018D93DB
:104AA0008D01B1E0EB1AF10809F473CF8091E800B1
:104AB00085FDF2CF8091E8008B778093E8000E941B
:104AC0004B0D811599F365CF1A828CE08B831AC048
:104AD0008A81833049F138F4813061F08230D9F035
:104AE0008FEF89830FC08430D9F71B821C821D820F
:104AF0001E8208C00E94B40C0E94F5286B837C8340
:104B00008D839E8340E250E0BE016F5F7F4F82E065
:104B10000E94960E19CD87E290E00E94EE291B823A
:104B20001C821D828E83EECF8B8190E0FE01319638
:104B300032968C30910534F7DC01AA0FBB1FAE52C0
:104B4000BD4F2C9111963C91318322830196F0CF79
:104B50008A818230B1F0853019F680912A0380FF76
:104B60001BC00E942A0F80912F0380FF18C08091E4
:104B70002F038E7F80932F0310922E030E94FA073B
:104B8000C1CF6B817C818D819E810E94F52887E257
:104B900090E00E94122AB6CF0E94120FE4CF0E942A
:104BA0000720B0CF4C816B818A810E94F50F982736
:104BB000892798279E838D83A5CF2D813E8132271B
:104BC000232732274C816B818A810E94370F9ACF2D
:104BD0000E945E0F97CF9A81913079F58830A9F0C5
:104BE000893031F18B81813009F08CCF2C8130E01C
:104BF000C901880F991F820F931F6FEF70E00E9409
:104C0000C728862F0E94C40A7DCF8B81813029F06E
:104C1000823009F077CF1C8275CF80912A03869568
:104C200086958695E5E58E9FC00111248C836ACF19
:104C300080912A030E940C0F65CF923009F050CF6B
:104C40008830B1F1893009F45EC08B81833061F125
:104C500080F48130B9F0823009F054CF8C81811515
:104C600009F485CF0E94072060E08C810E944617DE
:104C700049CF843009F046CF20E0409132036D8166
:104C80008C810FC08C81F8EC8F9FC00111246FEFD5
:104C900070E00E94C728462F20E060913103809188
:104CA00030030E9468162ECF8C81809333032ACF65
:104CB0008B81833029F160F48130A1F0823009F0DA
:104CC00021CF80912F0380FF19C086958695AECFA6
:104CD000843009F017CF809130038C8380913103A9
:104CE0008D8310CF809132030FEF809FC00111247C
:104CF00068EC70E00E94C7286C8304CF80E096CFF8
:104D00008091330393CF20912F0330913003409152
:104D100031035091320360913303709134038091D9
:104D20003503909136030E940E16ECCE80E18A8303
:104D3000E9CE1A8288E7CACE0A811B811027012793
:104D400010278C816801C80ED11C7E0125E0E20E7F
:104D5000F11C0C151D0509F4D5CE80E008371105AE
:104D600028F4C80188579C4F0E94EE29D7018D93E3
:104D70007D010F5F1F4FEDCF0A811B811027012797
:104D80001027FE0131967F018C816F01C80ED11C66
:104D9000EC14FD0409F4B6CE0837110540F4D70130
:104DA00014966C91C80188579C4F0E94122A0F5F7D
:104DB0001F4FBFEFEB1AFB0AEBCF0E94970FA2CE5B
:104DC00084E0B5CF0A811B811027012710278C8131
:104DD0006801C80ED11C7E01E5E0EE0EF11CC01684
:104DE000D10609F48FCE80E00036F3E01F0720F4EF
:104DF000C80188960E94EE29D7018D937D010F5F2F
:104E00001F4FEDCF0A811B81102701271027FE01BC
:104E100031967F018C816F01C80ED11CCE14DF0446
:104E200009F470CE0036F3E01F0738F4D70114966A
:104E30006C91C80188960E94122A0F5F1F4FBFEF26
:104E4000EB1AFB0AEBCFEBE08E16910408F021CDB4
:104E50004ECDFBE02F16310408F0D6CC03CD1F92C7
:104E60001FB61F9211248F939F93AF93BF9380918E
:104E7000AA02811113C08091C6019091C701A0912F
:104E8000C801B091C9014196A11DB11D8093C60111
:104E90009093C701A093C801B093C901BF91AF918E
:104EA0009F918F911F901FBE1F90189578941F920D
:104EB0001FB61F9211248F939F93AF93BF9380913E
:104EC000C6019091C701A091C801B091C901019696
:104ED000A11DB11D8093C6019093C701A093C80185
:104EE000B093C901BF91AF919F918F911F901FBE49
:104EF0001F9018951F920F920FB60F9211242F93A7
:104F00003F934F935F936F937F938F939F93AF9351
:104F1000BF93EF93FF938091E10082FF09C08091DE
:104F2000E20082FF05C08091E1008B7F8093E10069
:104F30008091DA0080FF24C08091D80080FF20C0DB
:104F40008091DA008E7F8093DA008091D90080FF13
:104F50009BC080E189BD82E189BD09B400FEFDCF1F
:104F600081E08093EA028091B401811109C00E941E
:104F70007C0D0E94CB0D8091E20084608093E20062
:104F80008091E10080FF17C08091E20080FF13C094
:104F90008091E2008E7F8093E2008091E200806148
:104FA0008093E2008091D80080628093D80019BC81
:104FB00085E08093EA028091E10084FF29C080911E
:104FC000E20084FF25C080E189BD82E189BD09B48A
:104FD00000FEFDCF8091D8008F7D8093D800809116
:104FE000E1008F7E8093E1008091E2008F7E8093CC
:104FF000E2008091E20081608093E2008091B30141
:10500000811509F447C084E08093EA028091EA02A6
:105010008091E10083FF27C08091E20083FF23C0DD
:105020008091E100877F8093E10082E08093EA0233
:105030001092B3018091E1008E7F8093E100809116
:10504000E2008E7F8093E2008091E2008061809395
:10505000E20042E060E080E00E949B0D8091F00061
:1050600088608093F000FF91EF91BF91AF919F9185
:105070008F917F916F915F914F913F912F910F9001
:105080000FBE0F901F90189519BC1092EA02109253
:10509000B40176CF8091E30087FF02C083E0B4CFF4
:1050A00081E0B2CF1F920F920FB60F921124EF92B0
:1050B000FF920F931F932F933F934F935F936F93A1
:1050C0007F938F939F93AF93BF93CF93EF93FF9370
:1050D00009EE10E0F8018081C091EC008F70C79557
:1050E000CC27C795C82B108280EFE82EF12CF70152
:1050F0008081877F808378940E944A11F801108212
:10510000F701808188608083CF70F801C083FF91B0
:10511000EF91CF91BF91AF919F918F917F916F91BF
:105120005F914F913F912F911F910F91FF90EF90C1
:105130000F900FBE0F901F901895DB018F939F93D8
:105140000E94652ABF91AF91A29F800D911DA39FE0
:10515000900DB29F900D11240895992778E0880F43
:10516000991F961708F0961B881F7A95C9F78095A6
:10517000089587FB082E062687FD819567FD6195BA
:105180000E94AD280EF4919507FC81950895AA1B05
:10519000BB1B51E107C0AA1FBB1FA617B70710F022
:1051A000A61BB70B881F991F5A95A9F78095909554
:1051B000BC01CD01089597FB072E16F4009407D08B
:1051C00077FD09D00E94C72807FC05D03EF49095D2
:1051D00081959F4F0895709561957F4F0895EE0FCB
:1051E000FF1F0590F491E02D099469279627692700
:1051F00078278727782708950E949A2A332312F464
:105200008A1B9B0B0C9406290E949A2AB7FF0895CB
:10521000821B930B08952F923F924F925F926F9251
:105220007F928F929F92AF92BF92CF92DF92EF9236
:10523000FF920F931F93CF93DF93CDB7DEB7CA1BB7
:10524000DB0B0FB6F894DEBF0FBECDBF09942A88E2
:10525000398848885F846E847D848C849B84AA848A
:10526000B984C884DF80EE80FD800C811B81AA8117
:10527000B981CE0FD11D0FB6F894DEBF0FBECDBFE2
:10528000ED010895002E083090F0982F872F762F8B
:10529000652F542F432F322F22270850F4CF220F8F
:1052A000331F441F551F661F771F881F991F0A95BC
:1052B000B2F7002D089597FD1094002E083098F055
:1052C0000850232F342F452F562F672F782F892FE3
:1052D000912DF4CF15949795879577956795579568
:1052E0004795379527950A95AAF71124002D08951B
:1052F0008F929F92AF92BF92CF92DF92EF92FF92E6
:10530000CF93DF93EC01688179818A819B8161155C
:1053100071058105910521F464E279ED8BE597E053
:105320002DE133EF41E050E00E94462A49015A0145
:105330009B01AC01A7EAB1E40E94652A6B017C01E4
:10534000ACEEB4EFA50194010E94732ADC01CB01FD
:105350008C0D9D1DAE1DBF1DB7FF03C00197A10998
:10536000B04888839983AA83BB839F77DF91CF91CD
:10537000FF90EF90DF90CF90BF90AF909F908F9075
:1053800008950E947829089580E091E00E9478298C
:105390000895A0E0B0E08093000190930101A093F4
:1053A0000201B09303010895FC014150504030F0D8
:1053B00001900616D1F73197CF01089588279927D4
:1053C0000895FB01DC0104C08D910190801921F446
:1053D00041505040C8F7881B990B0895F999FECFAA
:1053E00092BD81BDF89A992780B50895A6E1B0E0F5
:1053F00044E050E00C94382AA8E1B0E042E050E0EC
:105400000C94382ADC01A40FB51F4150504048F0DD
:10541000CB01840F951F2E910E94132A41505040BA
:10542000D0F70895262FF999FECF92BD81BDF89A45
:10543000019700B4021639F01FBA20BD0FB6F894D8
:10544000FA9AF99A0FBE08950396272F0E94132AFD
:105450000E94122A252F0E94132A242F0C94132A0B
:105460000196272F0E94132A0C94122ADC01CB01EB
:10547000FC01F999FECF06C0F2BDE1BDF89A319664
:1054800000B40D9241505040B8F70895052E97FB97
:105490001EF400940E945D2A57FD07D00E94782ACE
:1054A00007FC03D04EF40C945D2A5095409530953E
:1054B00021953F4F4F4F5F4F089590958095709580
:1054C00061957F4F8F4F9F4F08950E949A2AA59F05
:1054D000900DB49F900DA49F800D911D11240895EF
:1054E000B7FF0C94652A0E94652A821B930B0895CE
:1054F000A1E21A2EAA1BBB1BFD010DC0AA1FBB1FD8
:10550000EE1FFF1FA217B307E407F50720F0A21B49
:10551000B30BE40BF50B661F771F881F991F1A94B6
:1055200069F760957095809590959B01AC01BD01E0
:10553000CF010895A29FB001B39FC001A39F700D3A
:10554000811D1124911DB29F700D811D1124911D8B
:105550000895F894FFCF010C090C0C0C120C270CC9
:10556000270C270C270C270C270C270C270C150CB5
:105570001A0C1E0C240C350C3B0C3F0C28124E123E
:1055800054124E125412A712C9125412C413D1133A
:10559000151A7D1A1D1AE719EB19211AEF19251A88
:1055A000311AFB19761AFF19351A031A391A5E1ABD
:1055B000071A3D1A651A0D1A431A4B1AF319291ABC
:1055C000F7192D1A111A471A551A6E1A741AE11979
:1055D000191A841ABE19C219B319BA19C619CA19E7
:1055E000CE19AB1AD01AD71ADC1AE11AE61AEB1A3E
:1055F000F01AF51AFA1AFF1A041B061B0B1B0E1BD6
:10560000111B141B171B191B1C1B1E1BC61BC61BA7
:10561000001C001C991CB41C2C1C2C1CB91C2A1D21
:105620003B1D3B1D64256825A825D225DD25E825E1
:10563000EB25EB25EB2570257025962699269C26D3
:0A564000BC26DD26E026E226022744
:10564A00010000000101010201191A1B1C1D1E1F85
:10565A00202122CF0CD00ED20CE70EEE0E44227B74
:10566A0049012701AC009F01B801D80100010202DB
:10567A0002020606060909090909090F0F0F0F0F89
:10568A000F1515151819191919191919191919238D
:10569A002425252525252530313233909135369715
:1056AA00349694F0F1F4F5F6F7676692E200E900B1
:1056BA00EA00B500B600B700CD008301CC008A012C
:1056CA0092019401210223022402250226022702C2
:1056DA002A02B300B4006F0070009F01CB019F0241
:0256EA00A0021C
:00000001FF
