:100000000C9424040C945C040C945C040C945C0428
:100010000C945C040C945C040C945C040C945C04E0
:100020000C945C040C945C040C9458270C943028B9
:100030000C940D270C945C040C945C040C945C04EC
:100040000C945C040C945C040C945C040C945C04B0
:100050000C945C040C9434270C945C040C945C04A5
:100060000C945C040C945C040C945C040C945C0490
:100070000C945C040C945C040C945C040C945C0480
:100080000C945C040C945C040C945C040C945C0470
:100090000C945C040C945C040C945C040C945C0460
:1000A0000C945C040C945C040C945C04050109023F
:1000B000A10185020901A1000509190129081500FE
:1000C0002501950875018102050109300931158165
:1000D000257F95027508810609381581257F9501D0
:1000E00075088106050C0A38021581257F95017572
:1000F000088106C0C005010980A101850319012AF4
:10010000B700150126B700950175108100C0050CD8
:100110000901A101850419012AA002150126A002E6
:10012000950175108100C00660FF0961A101096297
:10013000150026FF00952075088102096315002629
:10014000FF00952075089102C005010906A101056F
:100150000719E029E7150025019508750181029529
:1001600001750881010507190029FF150026FF0008
:100170009506750881000508190129051500250156
:10018000950575019102950175039101C009025B06
:1001900000030100A0FA09040000010301010009A5
:1001A0002111010001224400070581030800010913
:1001B00004010002030000000921110100012222B4
:1001C0000007058203200001070503032000010941
:1001D0000402000103000000092111010001227B3B
:1001E000000705840320000112010002000000083E
:1001F000D804A2EC010001020001080368003800E5
:10020000380000001403680069006E006500790082
:1002100062007500730068000000040309042900EF
:100220003B003D003F004100000044002700470024
:100230003A003C003E0040004200430045004600BA
:10024000480035001F0021002300250027002E0054
:100250002A004A001E0020002200240026002D0053
:100260002A0049004B002B001A0015001C000C004E
:100270001300300000004D001400080017001800A3
:1002800012002F0031004C004E003900160009000A
:100290000B000E00330032000000000004000700D5
:1002A0000A000D000F003400280000000000E100EB
:1002B0001D000600050010003700E5000000520098
:1002C00064001B0019001100360038000100000016
:1002D0000000E000E200000000000000E600E7008F
:1002E00000005100E300000000002C00000021523B
:1002F000E40050004F000100010001002178237844
:10030000000028780100037801000100207824789B
:10031000267825782778027804780100010001000A
:1003200001000100010001000100010001000100C5
:10033000010001000100010001000100A90001000D
:100340000100007C01000100010001000000AB0081
:100350000100010001000100010001000100AE00E8
:10036000AA000100010001000100010001000100DC
:100370000000000001000100010001000100010077
:100380000100000000000100010001000100010067
:100390000100010000000100010001000100010056
:1003A0000100010001000000000001000100000048
:1003B0000000000001000100000001000100000039
:1003C0000000010000000100010001000100010027
:1003D0000100010001000100000001000100010016
:1003E0000100010001000100010001000100010005
:1003F00001000100010001000100010001000100F5
:1004000001000100010001000100010001000100E4
:1004100001000100010001000100010001000100D4
:1004200001000100000001000100010001000100C5
:1004300001000100010001000100010001000100B4
:1004400001000100010001000000000001000100A6
:100450000100010001000100010000000000010096
:100460000100010001000100010001000000010085
:100470000100010001000100010001000100000075
:100480000000010001000000000000000100010068
:100490000000010001000000000001000000010058
:1004A0000100010001000100010001000100010044
:1004B0000000010001000100010001000100010035
:1004C0000100010001000100010001000100010024
:1004D0000100010001000100010001000100010014
:1004E0000100010001000100010001000100010004
:1004F00001000100010001000100010000000100F5
:1005000001000100010001000100010001000100E3
:1005100001000100010001000100010001000100D3
:1005200000000000010001000100010001000100C5
:1005300001000000000001000100010001000100B5
:1005400001000100000001000100010001000100A4
:100550000100010001000000000001000100000096
:100560000000000001000100000001000100000087
:100570000000010000000100010001000100222331
:10058000252628292A2C2D2F3032333536383A3B70
:100590003D3E4042434547494A4C4E5051535557C2
:1005A000595A5C5E6062646668696B6D6F717375E1
:1005B00077797B7D7F81838587898A8C8E909294E1
:1005C00096989A9C9E9FA1A3A5A7A8AAACAEAFB1EE
:1005D000B3B4B6B8B9BBBCBEBFC1C2C3C5C6C7C938
:1005E000CACBCCCDCED0D1D2D2D3D4D5D6D7D7D8F2
:1005F000D9D9DADADBDBDBDCDCDCDCDCDDDDDDDD44
:10060000DCDCDCDCDCDBDBDBDADAD9D9D8D7D7D64B
:10061000D5D4D3D2D2D1D0CECDCCCBCAC9C7C6C502
:10062000C3C2C1BFBEBCBBB9B8B6B4B3B1AFAEAC48
:10063000AAA8A7A5A3A19F9E9C9A98969492908EF3
:100640008C8A89878583817F7D7B79777573716FCC
:100650006D6B6968666462605E5C5A5957555351A8
:10066000504E4C4A4947454342403E3D3B3A38365E
:10067000353332302F2D2C2A292826252322FFAA74
:100680007F55400001010101010101010102020247
:10069000020202020202030303030303030304042E
:1006A00004040404040505050505060606060607F8
:1006B0000707070708080808090909090A0A0A0BB1
:1006C0000B0B0C0C0C0D0D0D0E0E0E0F0F0F101052
:1006D00011111112121313141415151616171718D9
:1006E0001819191A1A1B1B1C1D1D1E1E1F20202144
:1006F0002222232424252626272829292A2B2C2D8B
:100700002D2E2F30313232333435363738393A3BAB
:100710003C3D3E3F404142434445464748494A4CA0
:100720004D4E4F50515354555658595A5B5D5E5F6C
:10073000616264656668696B6C6D6F707273757702
:10074000787A7B7D7E8082838587888A8C8E8F9164
:10075000939596989A9C9EA0A2A3A5A7A9ABADAF8E
:10076000B1B3B5B7BABCBEC0C2C4C6C9CBCDCFD178
:10077000D4D6D8DBDDDFE2E4E7E9EBEEF0F3F5F821
:10078000FAFDFF1E0F0500047F3F1F643214643220
:1007900014783C1E1E140A05000000000000000032
:1007A0000000000000000000000000000000000049
:1007B0000000000000000000000000007E0F00D4D8
:1007C000FFFFFFC7000000780000000000000000ED
:1007D0002A2B28000000000000000000000000009C
:1007E00000000029000000002C1E342021222434A7
:1007F0002627252E362D3738271E1F202122232479
:1008000025263333362E37381F0405060708090A14
:100810000B0C0D0E0F101112131415161718191AB0
:100820001B1C1D2F3130232D350405060708090A2E
:100830000B0C0D0E0F101112131415161718191A90
:100840001B1C1D2F3130354C11241FBECFEFDAE0B9
:10085000DEBFCDBF04B603FE18C080918103909126
:100860008203A0918303B09184038730904BA7400B
:10087000B04B59F4109281031092820310928303BB
:1008800010928403E0E0F8E3099523E0A2EAB1E0E6
:1008900001C01D92A138B207E1F711E0A0E0B1E07C
:1008A000E6E0F6E502C005900D92A23AB107D9F74D
:1008B0000E94B1200C94872A0C94000081FF05C08F
:1008C0005D9A82FF04C0769A08955D98FACF769873
:1008D000089580933A03089580933B03089521E09F
:1008E00030E001C0220F8A95EAF780913B03822B0A
:1008F0000E946C04089521E030E0A90102C0440F79
:10090000551F8A95E2F7CA01809590913B03892390
:100910000E946C040895292F9C3090F5893080F551
:1009200090E039E0239F800D911D1124282F27701E
:1009300041E001C0440F2A95EAF723E09695879598
:100940002A95E1F7FC01EE0FFF1FE80FF91FE950B0
:10095000FD4F20E030E070E05191DF01CB01022E2D
:1009600002C0969587950A94E2F781708195852754
:10097000842385278E932F5F3F4F2330310561F706
:100980000895292F9C3078F5893068F590E039E09A
:10099000239F800D911D1124682F677023E0969589
:1009A00087952A95E1F7FC01EE0FFF1FE80FF91F6D
:1009B000E950FD4F40E050E080E0219130E0062E0C
:1009C00002C0369527950A94E2F721703327042E4A
:1009D00001C0220F0A94EAF7822B4F5F5F4F43302A
:1009E000510559F7089580E0089590913B0321E067
:1009F00030E0F90101C0EE0F8A95EAF7D90102C093
:100A0000AA0FBB1F6A95E2F7EA2B01C0220F4A9595
:100A1000EAF7892F8E23E81305C0892F822B0E94C5
:100A20006C0408952095822F8923F9CF809141038A
:100A300090914003981301C008958F5F8770FACF9B
:100A400090913C038095892380933C03282F277045
:100A500021110DC0891759F090913E0392FF07C0F4
:100A60008695869586950E947B0410923C03089596
:100A7000982F9095809137038923809337030895A9
:100A80009C01803E910509F448C0D8F4813391055A
:100A900009F47DC048F48932910509F46DC08A9744
:100AA00009F47CC0C90108958933910551F1823858
:100AB000910539F1C597B1F780913D0385FFF2CFDC
:100AC00029C0843E910509F447C048F4823E91054F
:100AD00099F1833E9105A9F121EE30E0E3CF863E06
:100AE000910509F444C0873E9105E1F680913D03EC
:100AF00083FD61C090913E0391FF2BC024EE30E056
:100B0000D1CF80913D038370811152C080913E030B
:100B100083FFC8CF29E230E0C5CF80913D0380FD3F
:100B200033C090913E0390FFBDCF23EE30E084FFB1
:100B3000B9CF20E030E0B6CF80913D0382FDF5CF04
:100B4000B1CF80913D0382FD30C090913E0390FD76
:100B50002FC084FFA7CFEDCF80913E0381FFA2CFAE
:100B600080913D0327EE30E084FDE3CF9BCF809161
:100B70003D0383FDF7CF96CF80913D0385FD1EC0D9
:100B800080913E0383FF8ECF29E330E08BCF8091AD
:100B90003D0386FF87CF2AE230E084CF80913D037A
:100BA00086FF80CF21E330E07DCF22EE30E07ACFA8
:100BB00020EE30E077CF26EE30E074CF25E330E052
:100BC00071CF90913D0392FF10C041E0282F247116
:100BD000243009F040E031E0282F2871283009F056
:100BE00030E0431711F02CE0822793FF10C041E062
:100BF000282F2471243109F040E031E0282F28719A
:100C0000283109F030E0431711F02CE082273091B1
:100C10003E0330FF10C051E0282F2171213009F030
:100C200050E041E0282F2871283009F040E05417A7
:100C300011F029E0822731FF10C041E0282F2171F7
:100C4000213109F040E031E0282F2871283109F0E6
:100C500030E0431711F029E0822794FD877E089544
:100C60001F93CF93DF930E944005EC01811522E58D
:100C7000920708F055C0811540E5940708F0D1C0EF
:100C8000803E910520F58D3C910508F0A4C0883A7E
:100C9000910570F4853A910508F09AC0813091056C
:100CA000D1F10497813A9105B0F1C0E0D0E033C0B2
:100CB000885A91094B97C8F7C85AD0E0CC0FDD1F6E
:100CC000C459DE4F0990D881C02DD46424C0811549
:100CD00050E49507C0F4C11580E2D80708F0B7C00A
:100CE000C83ED105C0F0CE019A9581159F41E8F626
:100CF0008D2F0E94E105182FCE0199270E944005F3
:100D0000EC01D12B08C099270E944005CC27DF7049
:100D1000C82BD92BD06ACE01DF91CF911F910895B6
:100D2000803842E59407C8F5803652E5950708F00B
:100D30005BC0C03482E5D807D0F4C03292E5D90751
:100D400008F04BC08C2F8695869520E2829FC001CB
:100D50001124C37021E030E0A90102C0440F551FE7
:100D6000CA95E2F7EA01C82BD92BDD68D4CF8C2FC6
:100D700086958695877050E2859FC0011124C370C7
:100D800021E030E0A90102C0440F551FCA95E2F7E7
:100D9000EA01C82BD92BDC68BECF803C52E5950711
:100DA00058F48F71C03AD245A0F590E0982F88276B
:100DB000EC01C46FD06AAFCF805C9245809708F099
:100DC00074CFDC2FCC27CC27DF71C06FD06AA3CFC4
:100DD000A497D064A0CFD0659ECFCF71D0E0DC2F98
:100DE000CC27C16FD06A97CF86958695877020E211
:100DF000829FC0011124C37021E030E0A90102C02C
:100E0000440F551FCA95E2F7EA01C82BD92BDA68BF
:100E100082CF0E94E105C82FD0E0DC2FCC27D06222
:100E20007ACF8F710E94E10593E0CC0FDD1F9A9578
:100E3000E1F7CC27DF70282F30E084FF04C050E1B9
:100E4000859F90011124C22BD32BD06964CF8D2FA5
:100E50008F710E94E105182FCE0199270E9440054D
:100E6000EC01D12BDCCF80E00895F894E82FE295D7
:100E7000EF70F0E041A18F7021E030E0B90102C0D5
:100E8000660F771F8A95E2F7CB01962F90959423F2
:100E900091A392A1892B82A3789408950895AF928B
:100EA000BF92CF92DF92FF920F931F93CF93DF9366
:100EB000F62EE901E42FF0E0ED57F94F611110C073
:100EC000E491BE2E2E2F2983E883BA82DF91CF9141
:100ED0001F910F91FF90DF90CF90BF90AF9008953A
:100EE000C82ED12CA62EB12C3491232F46E0849FFE
:100EF00080011124EFEFF0E0C801BF010E94A52896
:100F0000CC0CDD1C45E5469FC001479F900D112488
:100F1000C81AD90A8C2D880FC80ECF018A199B09CF
:100F20005C013A9DC0013B9D900D1124B92EFC9CA3
:100F3000D0011124AB2FBB27AF014A1B5B0BDA0199
:100F40003A9FA0013B9F500D1124DF01AC19B1095C
:100F50006D01FC9CD001FD9CB00D1124AB2FBB2773
:100F6000EA1BFB0B3E9FD0013F9FB00D1124EB2FDE
:100F700063307105C1F00C3F134058F461307105C6
:100F8000B1F06230710509F09ECFE22F292FBB2E00
:100F90009ACF6430710571F06630710509F493CF12
:100FA000E92FB52E90CF292FB32EE52F8CCFE22F2E
:100FB000252F89CFE92FB22E2B2F85CF80912F039C
:100FC000843028F48370846080932F0308958C3AD2
:100FD000E8F38370886AF8CF80912F0380FD0AC000
:100FE000E9E4F2E0118210821282339682E0E13964
:100FF000F807C1F768E170E089E492E00E94370EDB
:10100000089590912F0390FF0CC0E9E4F2E08183F2
:1010100060834283339692E0E139F907C1F70E9479
:10102000EC070895A3E0B0E0E8E1F8E00C94F928BB
:1010300090912F0390FF0AC09E012F5F3F4F0E94A7
:101040004F074B8169818A810E9401082396E2E063
:101050000C941529CF93DF93EC01EFE2F3E0438189
:1010600062818C810E9412088C818F5F8C83DF915A
:10107000CF910895CF93DF93EC01EC81F0E0E2583B
:10108000FA4F4491EFE2F3E0628181810E941208FD
:101090008C818F5F8C83DF91CF910895EF92FF92C7
:1010A0001F93CF93DF93EC0189E4E82E82E0F82EC2
:1010B00010E08C8197014091320360913103810FE0
:1010C0000E944F07165F83E0E80EF11C103F89F77E
:1010D0000E94EC078C819A8190FF08C08F5F8C83FF
:1010E000DF91CF911F91FF90EF9008958150F7CF3E
:1010F000A0E0B0E0EEE7F8E00C94F328FC01828178
:10110000DD24D39480FF02C0DD24DA94C9E4D2E068
:1011100000E010E0198218821A8294E0E92EF12C86
:10112000C12C809148028C0D8931BCF168E10E948C
:101130009728892F082E001C00088017010689F4C3
:10114000409132032E2D2403A0011124559547957B
:10115000559547959E0160913103809130030E941F
:101160004F07CD0C81E0E81AF108D9F60F5F1F4F49
:1011700023960831110571F60E94EC078091480210
:1011800091E0D9120EC0811591F0815080934802F0
:10119000CDB7DEB7E8E00C940F2987FFCBCF885E90
:1011A000C9CF90E00196B8010E94B928EFCF87E13E
:1011B000EDCF0F931F93CF93DF93C9E4D2E0FE01ED
:1011C000118210821282339682E0E139F807C1F76A
:1011D00000E010E080914702082E001C000808176C
:1011E00010058CF180910701082E001C0008801763
:1011F00001064CF19E0140913203609131038091D0
:1012000030030E944F070F5F1F4F239608311105CF
:1012100009F70E94EC078091060190914702980F10
:101220009093470220910701280F2093070112167F
:1012300014F497311CF0819580930601DF91CF91D2
:101240001F910F910895198218821A82DCCFA6E0AF
:10125000B0E0EDE2F9E00C94F3288D839E83AD813C
:10126000BE811496FC912F2F30E0D9010E94782A7C
:101270009B01AC010E94432A6B017C0180E290E05B
:101280009C012F1B3109F901A5E5B0E0A7019601EA
:101290000E94432A69837A838B839C839F01DF01A9
:1012A0000E94DA289B010E94E2289B01AC012C0DD0
:1012B0003D1D4E1D5F1D69817A818B819C810E943D
:1012C000562A022F30E00A32C8F5A901440F551FF3
:1012D000420F531F55954795142F109599E4C92E29
:1012E00092E0D92EF12C85E5E82EE01A8E2DF1FC46
:1012F000802F9601412F609131030E944F07F39494
:1013000033E0C30ED11C88E1F812F0CF0E94EC0745
:10131000AD81BE8114969C9181E0911519F09032B7
:1013200019F48FEF8093050180910501890FED81FC
:10133000FE8184832696E8E00C940F2985E590E0F1
:10134000821B930BAC01440F551F480F591F57FFC9
:10135000C1CF4F5F5F4FBECFA3E0B0E0E2EBF9E05B
:101360000C94F7288C018091460281110AC09E01DD
:101370002F5F3F4F4FEF6FEF0E944F078A8180939F
:101380004602F8016481613049F06230D1F0809109
:10139000460240E0611531F040E015C06091460220
:1013A00040E080E00E940108F801848190E001960D
:1013B00063E070E00E94B92884832396E4E00C94F3
:1013C00013294091460280E060E0ECCFEF92FF925B
:1013D0000F931F93CF93DF938C01C9E4D2E0E12CEC
:1013E000F12C6091310380913003F8019481FCE08D
:1013F000EF16F104ECF49115E9F09E0140913203EF
:101400000E944F072FEFE21AF20A239688E1E816AE
:10141000F10439F70E94EC07F801848190E001960D
:10142000817099278483CDB7DEB7E6E00C9411294B
:10143000911519F39E0140E0E3CFFA01811511F0F7
:1014400009950895FB01FCCFA0E0B0E0EAE2FAE0E4
:101450000C94F328843080F581112FC09091800086
:10146000977F909380002091860030918700A82F6D
:10147000B0E00E94782A23E030E040E050E00E9493
:10148000562A69017A0180918600909187006CE06C
:1014900070E00E94A5286217730798F0C90169E0FF
:1014A00070E00E94A52870938D0060938C00CDB7EA
:1014B000DEB7E8E00C940F2983E0909180009860FB
:1014C000D0CF809186009091870000918600109186
:1014D00087002091860030918700C6E0D0E0BE01F1
:1014E0000E94A528C60ED71EE11CF11C85E0CC0C7D
:1014F000DD1CEE1CFF1C8A95D1F7C801BE010E94BD
:10150000A52840E050E0260F371F411D511DC7019F
:10151000B6010E94562A69017A01E0918600F09195
:101520008700CA01B9010E947B289B01AC01DF0141
:101530000E94432A9B01AC01C701B6010E947B288F
:101540002FE096958795779567952A95D1F7209105
:10155000860030918700261737071806190608F00D
:10156000A2CF60918600709187009DCF982F990F30
:10157000990F990F20912A032770922B90932A0399
:1015800021E0983008F420E090912A0320FB90F9A4
:1015900090932A030E94240A0895539A0895282FAD
:1015A00035EB2303C001112497FF04C08058910933
:1015B000892F089580589F4FFBCF8091230380FD92
:1015C00014C081FD14C082FD16C0809122038115D4
:1015D00081F08E3180F420E5829FC00111246EE1FC
:1015E00070E00E94B928862F089584E1089588E26A
:1015F000089588E0089580E508958091230380FD93
:1016000017C081FD17C082FD19C08091210381158B
:1016100099F0883298F428E0829FC001112468E292
:1016200070E00E94B9286115710551F0862F089568
:1016300062E0FCCF64E0FACF61E0F8CF68E0F6CF7B
:1016400081E00895E091ED02F091EE02309729F0EB
:101650000190F081E02D0995089580E00895A3E0C0
:10166000B0E0E5E3FBE00C94F9289C018091CC010B
:101670009091CD0182179307A1F03093CD01209373
:10168000CC01E091ED02F091EE02309751F083E051
:1016900089833B832A830084F185E02DCE01019666
:1016A00009952396E2E00C941529A3E0B0E0EBE560
:1016B000FBE00C94F9289C018091CA019091CB0128
:1016C00082179307A1F03093CB012093CA01E091D8
:1016D000ED02F091EE02309751F084E089833B8374
:1016E0002A830084F185E02DCE0101960995239689
:1016F000E2E00C941529A6EAB1E0EFEF90E02D911D
:10170000821751F0EF3F19F4211101C0E92F9F5FBB
:101710009630A9F7EF3F09F408950E2E000CFF0B49
:10172000EC55FE4F82830895E6EAF1E0919189132A
:1017300002C0DF011E9291E0EC3AF907B9F7089573
:101740002FB7F8948091C6019091C701A091C8016C
:10175000B091C9012FBF08950E94A00B20912603CC
:1017600030912703232B211521F08093CF029093F2
:10177000D0022091280330912903232B211521F039
:101780008093CD029093CE02E091ED02F091EE02B3
:10179000309749F082E0809324030680F781E02DA2
:1017A00084E293E0099508952091260390912903FE
:1017B00030912803611509F458C040912703242B68
:1017C000292B232B211531F098E09093220391E0EF
:1017D00090932103E3E3E80FE33150F4F0E0E7579F
:1017E000F54D0C94CD280E94DD0A81958093270346
:1017F0000E94AC0B08950E94DD0AF8CF0E94DD0A1A
:10180000819580932603F4CF0E94DD0AFACF0E94CF
:10181000FD0A80932803ECCF0E94FD0A8195F9CF41
:101820000E94FD0A819580932903E2CF0E94FD0A60
:10183000FACF815D990B21E030E001C0220F8A953B
:10184000EAF780912503822B80932503D1CF8091E5
:101850002303816080932303CBCF80912303826095
:10186000F9CF809123038460F5CF8D3C59F48091AA
:10187000270387FF0DC010922703211559F41092FA
:10188000220308C08E3C81F48091270318169CF334
:10189000211581F08091280390912903892B8111D2
:1018A000A7CF10922103A4CF8F3C41F427FFF0CFA4
:1018B00010922603809127038115E0CF803D19F413
:1018C0001216B4F3E5CF893D29F413160CF71092E4
:1018D0002803DECF8A3D19F437FFDACFF8CF8B3DEE
:1018E00029F497FFD5CF10922903D2CF8C3D19F45C
:1018F0001916CCF3CDCF9FE2980F983090F4815D0C
:10190000990B41E050E0BA0102C0660F771F8A953B
:10191000E2F7CB01809590912503892380932503DD
:10192000B7CF8D3D31F4809123038E7F80932303C5
:10193000AFCF8E3D21F4809123038D7FF7CF8F3D74
:1019400009F0A6CF809123038B7FF0CF2FB7F894B7
:101950006091C6017091C7018091C8019091C90141
:101960002FBF08959C014FB7F8948091C6019091C4
:10197000C701A091C801B091C9014FBF821B930B51
:1019800008958091C50108950895FC019B018091FF
:10199000BB019091BC018617970740F0672B29F493
:1019A0008091E8008E778093E800C90140E00097BD
:1019B00041F4411106C08091E80082FF2FC080E011
:1019C00008952091EA022115A9F12530A9F120916D
:1019D000E80023FD2DC02091E80022FDECCF2091EE
:1019E000E80020FFE4CF3091F3002091F20000974F
:1019F00019F02830310558F041E02830310509F060
:101A000040E02091E8002E772093E800D0CF41916C
:101A10004093F10001972F5F3F4FE9CF8091EA0299
:101A2000811541F0853041F08091E80083FFC3CFFC
:101A300081E0089582E0089583E008958091B501E2
:101A400087FF13C08091E80082FF06C08091E80004
:101A50008B778093E80008958091EA028111F2CF9C
:101A600008958091EA028115D9F38091E80080FF02
:101A7000F8CF8091E8008E77ECCF2091E400309190
:101A8000E50095E6A9012091EC00822F817020FFEE
:101A900006C08091E80080FF06C080E00895209194
:101AA000E80022FD1AC08091EA02811589F0853094
:101AB00089F08091EB0085FD0FC02091E40030910A
:101AC000E50042175307F9F29A95E1F684E008958C
:101AD00082E0089583E0089581E00895E8EDF0E064
:101AE00080818E7F80831092E2001092DA00109243
:101AF000E100A0EEB0E08C9181608C9380818F77C3
:101B0000808319BCA7EDB0E08C918E7F8C9380818F
:101B10008F7E80831092B4010895982F9093E900EE
:101B2000891771F07091EC002091ED005091F00058
:101B300021FD09C09F5F973089F78093E9000895E0
:101B4000762F242F50E03091EB003E7F3093EB0056
:101B50003091ED003D7F3093ED003091EB0031602E
:101B60003093EB007093EC002093ED005093F00065
:101B70002091EE0027FDDECF0895A0E0B0E0E3EC79
:101B8000FDE00C94F328C8EDD0E088818F7E888337
:101B9000E7EDF0E080818160808384E082BF81E0B6
:101BA0008093B40188818E7F888302EE10E0F80173
:101BB00010821092DA0081EEC82ED12CF60110822C
:101BC00088818F77888388818068888388818F7DEA
:101BD000888319BC1092EA021092B3011092AD02F0
:101BE0001092B20190EEE92EF12CF70180818B7FEB
:101BF000808388818160888342E060E080E00E9489
:101C00008D0DF60180818E7F8083F8018081816057
:101C10008083808188608083F70180818E7F8083CC
:101C2000888180618883CDB7DEB7E8E00C940F2906
:101C3000E09141039091400327E0E91302C080E066
:101C40000895AE2FB0E02E9FF0011124EE5BFC4F03
:101C50003181361306C03081381303C03581341307
:101C600004C0FD013196E770E8CF81E008959C0142
:101C7000FB014BB1477F5BB158606FB7F894CF0160
:101C8000880F991F8E0F9F1F820F931F28173907E8
:101C900041F46FBF8FE594E00197F1F700C00000B9
:101CA0000895F90171919F01E8E05BB9000000C05F
:101CB00077FF4BB9770F000000C000C000C04BB9E0
:101CC00000C0EA9591F7E2CF81E08093E00080E2E6
:101CD0008093D8001092C9008FE19EE40197F1F73C
:101CE00000C0000087E090EBDC01809381039093BB
:101CF0008203A0938303B093840388E19CE00FB632
:101D0000F894A895809360000FBE90936000FFCF79
:101D10000F931F93CF93DF938B01EA019091EA0217
:101D2000943059F58093E9008FEF9091E80095FD8C
:101D300006C095ED9A95F1F700008A95B1F780916C
:101D4000E80085FF1AC00E943D0D811111C08091ED
:101D5000E80085FD06C08091E8008E778093E8005A
:101D6000F2CFF80181918F018093F100219779F7EB
:101D70008091E8008E778093E800DF91CF911F91EA
:101D80000F910895CF93DF93D82FC92F48E050E0EB
:101D9000682F792F81E00E94880E88E0ED2FFC2FBC
:101DA000ADEBB1E001900D928A95E1F7DF91CF9113
:101DB0000895BC0146E050E084E00E94880E08953A
:101DC000BC0143E050E084E00E94880E08959091A9
:101DD0003E0392FB222720F9281779F080FB92F925
:101DE00090933E0360913D0370913E0384E090E048
:101DF0000E940E2A82E00E9420050895682F86E046
:101E000090E00E94F029089580912A0380FD13C07C
:101E1000816080932A03813019F489E080932A033A
:101E200080912A030E94FE0E80912A038695869552
:101E300086950E94240A089580912A0380FF08C095
:101E40008E7F80932A030E94FE0E80E00E94240A67
:101E500008951F93CF93DF93962F122F632F843013
:101E6000D8F49C30C8F44930B8F4C42FD0E0CC0F7B
:101E7000DD1F22E1929FC00DD11D112498ED899F95
:101E8000C00DD11D1124CE0188960E94F029612F2A
:101E9000CE0189960E94F029DF91CF911F9108957C
:101EA000AF92BF92CF92DF92FF920F931F93CF9387
:101EB000DF93A12CB12C00E0650110E013C0FE01FE
:101EC000259135914F2D612F802F0E94290F229649
:101ED000F39489E0F812F3CF89E0C80ED11C1F5F9C
:101EE0001C3039F0E601CC0FDD1FC25EDD4FF12C56
:101EF000E6CF0F5F8CE6A80EB11C0430E9F6DF9147
:101F0000CF911F910F91FF90DF90CF90BF90AF9036
:101F10000895CF93DF93C8E8D3E060E0CE010E943C
:101F2000F0292196C11584E0D807B9F7DF91CF9148
:101F30000895CF93C82F64E2811101C06FEF84E24E
:101F400090E00E94F02968E0C11101C06FEF85E2C6
:101F500090E00E94F02967E1C11101C06FEF86E2B5
:101F600090E00E94F029CF91089580E00E94990F9F
:101F700060E087E290E00E94F0290E94500F0E94EA
:101F8000890F81E00E94990F089586E090E00E94F9
:101F9000CC2980932A0382FD05C08DE180932A031A
:101FA0000E94FE0E80912A03803220F087708861A3
:101FB00080932A0390912A03892F817090FF04C097
:101FC000892F8695869586950E94240A08950F93F9
:101FD0001F93CF93DF93843030F56C3020F5493078
:101FE00010F5C42FD0E0CC0FDD1F22E1629FC00DA1
:101FF000D11D112438ED839FC00DD11D1124CE01B8
:1020000088960E94CC29082F10E0102F0027CE01BF
:1020100089960E94CC299801282BC901DF91CF9184
:102020001F910F91089580E090E0F8CF462F672F21
:102030007C3038F4493028F4843018F40E94E70FDB
:10204000089580E090E00895A0E0B0E0EAE2F0E1D9
:102050000C94F4287C0100913B0380913A03082BF7
:10206000C3E0D0E010E0C8010C2E02C09595879522
:102070000A94E2F780FD09C02197A8F7D12C8D2D95
:10208000CDB7DEB7E7E00C941029DC2EB7018C2F1A
:102090000E9416100E943006019771F3F0CF0F9343
:1020A0001F93CF93FC01858100811181811591F0EF
:1020B000611581F0C8010E942410C82F682FC80143
:1020C0000E948B04B8018C2F0E941610CF911F9193
:1020D0000F910895C8010E94C104C82FF3CFCF9378
:1020E000DF93D82FC92F0E9424106D2F7C2F0E94C0
:1020F00016100E943006DF91CF910895FC01848173
:102100008115A1F0808191810E946F10282F9295F6
:102110009F70963099F060F4925F9F70923030F427
:10212000203FB1F038F481E0283E38F080E0089597
:102130009A5FF3CF81E0243FC9F7089591E0213FF2
:1021400009F090E081E0283E08F080E0892B0895B6
:1021500081E0089584E290E00E94CC29843289F4E1
:1021600085E290E00E94CC29883059F486E290E024
:102170000E94CC2991E0873109F090E0892F81708D
:10218000089580E0FCCF8091370390913F03892B25
:1021900040913803411589F090E026EA31E0F901D9
:1021A00050812F5F3F4F51119F5F51E02C3A35070F
:1021B000B1F7911110923803842B8093A40148E069
:1021C00050E06FEE72E084EA91E00E94BF29892B13
:1021D000A9F088E0E4EAF1E0AFEEB2E001900D9200
:1021E0008A95E1F7E091ED02F091EE02309731F03F
:1021F0000280F381E02D84EA91E009950895CF9360
:1022000010923703C6E0E6EAF1E0DF018C2F1D9261
:102210008A95E9F780E090E00E942F0B80E090E043
:102220000E94550B10923F030E94C310E4E2F3E0BA
:10223000DF011D92CA95E9F7109222031092210343
:10224000109223030E94AC0BCF9108950E94FF10BF
:102250002FEF84E39CE0215080409040E1F700C0E4
:10226000000088E19CE00FB6F894A8958093600088
:102270000FBE90936000FFCFAAE2B0E0E2E4F1E18C
:102280000C94F82885EB91E0FC0101962091F10077
:10229000208321E08D3B9207B9F78091B601893008
:1022A00009F456C0C8F4823009F4B3C0833009F48D
:1022B00082C0813071F18091E80083FFE7C0809196
:1022C000B5019091B6019A3008F0E0C0E92FF0E036
:1022D000E456F54D0C94CD288A3009F489C08B3032
:1022E00051F78091B501813231F78091B901909118
:1022F000BA01892B01F78091E800877F8093E8007D
:102300000E941E0D8091B701809304010E94FF106E
:10231000D2CF8091B501813A71F68091E800877F34
:102320008093E8008091B9019091BA01892B61F006
:1023300060E080E090E070E00E94C50C8091E800D1
:102340008B778093E800B7CF68E08DEB91E0F3CF17
:102350008091B501813209F0AECF8091B9019091A1
:10236000BA018D7F892B09F0A6CF8091E800877F85
:102370008093E8008091E80082FF18C09091F300FC
:102380008091F200029731F48091F100813011F0D8
:10239000863021F48091F1008093C5018091E8009E
:1023A0008B778093E8000E941E0D85CF8091EA0212
:1023B0008111E0CF80CF8091B501813A09F07BCFC8
:1023C0008091B9019091BA01892B09F074CF809165
:1023D000E800877F8093E8008091E80080FFFCCFD1
:1023E000809104018093F1008091E8008E77D9CF2D
:1023F0008091B501813209F05ECF8091E800877F3E
:102400008093E8000E941E0D8091B8018093B10175
:1024100052CF8091B501813A09F04DCF8091E8000B
:10242000877F8093E8008091E80080FFFCCF809157
:10243000B101D8CF803889F0823841F58091B90157
:102440008F70873018F58093E9008091EB0085FB51
:10245000882780F91092E90006C08091AD02880FAC
:102460009091B201892B9091E800977F9093E800BA
:102470008093F1001092F1008091E8008E7723C0E4
:10248000811116C08091B701813011F18091E8006F
:1024900083FF0AC08091E800877F8093E8008091E5
:1024A000EB0080628093EB00AA96E3E00C94142981
:1024B000823061F78091B701811589F01092E900AF
:1024C0008091E800877F8093E8000E941E0DDECF98
:1024D00081E0933009F080E08093AD02EFCF8091EE
:1024E000B9018F702FEF280F263080F68093E90016
:1024F0002091EB0020FFE2CF933031F48091EB008C
:1025000080628093EB00DACF9091EB009061909322
:10251000EB0021E030E0A90102C0440F551F8A956D
:10252000E2F74093EA001092EA008091EB008860A5
:10253000E8CF8111ABCF1091B7011F778091E300F5
:102540008078812B8093E3008091E800877F8093DF
:10255000E8000E941E0D8091E80080FFFCCF809172
:10256000E30080688093E30083E0111101C082E002
:102570008093EA028BCF8058823008F087CF809119
:10258000B7019091B8018C3D53E0950799F583E030
:102590008A838AE289834FB7F894DE01139620E09C
:1025A0003EE051E2E32FF0E050935700849120FF8A
:1025B00003C082958F703F5F8F708A30C8F0895C4E
:1025C00090E08D939D932F5F243161F74FBF8091F1
:1025D000E800877F8093E8006AE270E0CE01019610
:1025E0000E94C50C8091E8008B778093E8004ECF65
:1025F000805DE6CF292F33272330310509F44DC004
:1026000078F52130310509F47CC08BE590E0EDE8E8
:10261000F1E02230310509F039CF2091E800277F21
:102620002093E8002091BB013091BC0182179307F1
:1026300008F49C0140E02115310509F067C0411103
:1026400065C08091E80082FDCDCF8091EA028115BE
:1026500049F2853039F28091E80083FFF2CFC2CF92
:102660008091B9019091BA0121323105D9F122321C
:10267000310509F00BCF8330910508F007CFFC013D
:10268000EE0FFF1FE05EFE4F0190F081E02D835EB4
:102690009E4FDC018C9190E011C09C01332781306A
:1026A00089F022303105B1F0232B09F0EFCEEAE1B9
:1026B000F2E0E4918E2F90E0EAE1F2E0009709F475
:1026C000E5CEABCFE4E0F2E0E4918E2F90E0E4E0E1
:1026D000F2E0F4CFEAEFF1E0E4918E2F90E0EAEF40
:1026E000F1E0ECCF8330910508F0D0CEFC01EE0F85
:1026F000FF1FEA5DFE4F0190F081E02D89E090E040
:102700008CCF82E190E0E8EEF1E087CF8091EA02A1
:10271000811509F467CF853009F464CF8091E80012
:1027200083FD60CF8091E80082FD8BCF8091E8002F
:1027300080FF81CF9091F3008091F2002115310547
:1027400019F08830910550F041E0089709F040E019
:102750008091E8008E778093E8006DCF449140939C
:10276000F1003196215031090196E8CF803809F007
:102770008DCE8091E800877F8093E8008091B3013F
:102780008093F10079CE811181CE1091B701123082
:1027900008F07CCE8091E800877F8093E80010935A
:1027A000B3010E941E0D1115D1F084E08093EA025E
:1027B00042E061EC81E00E948D0D42E261EC84E038
:1027C0000E948D0D42E261EC82E00E948D0D42E29A
:1027D00060EC83E00E948D0D8091EA0257CE8091DB
:1027E000E30087FDE2CF81E0E1CFCF93C82F8115D1
:1027F000C9F08238C9F40E94220B81FD13C089E31D
:102800000E947B0B0E94C3102FEF37EE83E0215014
:1028100030408040E1F700C0000089E30E94940B43
:102820000E94C310CF9108958338A1F40E94220B17
:1028300080FDF8CF83E50E947B0B0E94C3109FEFC1
:1028400021EE34E0915020403040E1F700C000001C
:1028500083E5E4CF8438A1F40E94220B82FDE2CF0D
:1028600087E40E947B0B0E94C3108FEF91EE24E05F
:10287000815090402040E1F700C0000087E4CECFB7
:102880008CEF8C0F813A70F4E6EAF1E08CEA91E08B
:102890002191C217D9F18E179F07D1F78C2F0E9473
:1028A0007B0BBECF80E28C0F883068F4C77021E0CC
:1028B00030E001C0220FCA95EAF780913703822BDE
:1028C00080933703ADCF8BE58C0F833038F42C2FFA
:1028D0002452330BC9010E942F0BA4CFE8E5EC0F63
:1028E000EB3150F4F0E0EE0FFF1FE459FE4F808112
:1028F00091810E94550B96CF83E38C0F833108F0B2
:1029000091CF61E08C2F0E94D40B8CCF8C2F0E9432
:10291000940B0E94C310C2CF811509F456C08238AF
:1029200079F40E94220B81FF50C089E30E947B0B47
:102930000E94C31089E30E94940B0E94C310089563
:10294000833859F40E94220B80FF3FC083E50E9428
:102950007B0B0E94C31083E5EECF843859F40E94AC
:10296000220B82FF32C087E40E947B0B0E94C310BF
:1029700087E4E1CF9CEF980F913AE8F290E2980F4C
:10298000983050F4877091E001C0990F8A95EAF76A
:10299000892F0E943805D1CF9BE5980F933028F4FA
:1029A00080E090E00E942F0B089598E5980F9B31EE
:1029B00028F480E090E00E94550B089593E3980F6F
:1029C000933118F460E00E94D40B08950F931F9385
:1029D000CF93C82F8B010E94F5130115110539F40F
:1029E0008C2F0E948C14CF911F910F9108958FE925
:1029F0009FE00197F1F700C0000001501109EDCFF1
:102A0000811539F090913703892B809337030E9409
:102A1000C3100895811521F00E9438050E94C3104B
:102A20000895FF920F931F93CF93DF93C62FD42F58
:102A3000122F8115A9F060932B030E94A00B909395
:102A4000B0018093AF01C77081E001C0880FCA95C3
:102A5000EAF70E940015CDB7DEB7E5E00C94122925
:102A600080912B03681332C08091AF019091B00127
:102A70000E94B20C883C910548F500E20D0FCD177D
:102A8000A9F0C770FF24F3948F2D01C0880FCA9559
:102A9000EAF70E940A15083048F48D2F877001C0AC
:102AA000FF0C8A95EAF78F2D0E94001560E070E018
:102AB000812F0E94E614083070F6D77081E001C0C3
:102AC000880FDA95EAF70E940A15C5CFC77081E032
:102AD00001C0880FCA95EAF7F6CFA0E0B0E0E3E7BF
:102AE000F5E10C94ED28FC018280648081E0848310
:102AF000EEE7F5E09490EDEFF5E0E491009132031C
:102B00000695015810E0000F111F012F1127CEEC80
:102B1000D1E029E4C22E22E0D22EAA24AA94B12C1C
:102B200077247A94E919EE2EF12C83E0881630F49C
:102B3000809130038883809131038983611017C0AD
:102B40001B821A8296014A81698188810E944F07FF
:102B5000259683E0C80ED11C82E0C634D80729F739
:102B60000E94EC07CDB7DEB7EEE00C9409298B810B
:102B70008115E9F081508B83789EC00111246C810E
:102B800070E00E94A528FB01FF27E258FA4F8491CC
:102B9000E82FE9197E9EC0011124B7010E94A528E3
:102BA00080913203689FB00111247A83CBCF0E94B9
:102BB000A229B5010E94B928801791071CF683E06D
:102BC000881688F00E94A229B5010E94B92888833E
:102BD0000E94A229209131032695622F70E00E9465
:102BE000B928280F29831A8280913203893C20F06A
:102BF00088EC8C838B83A6CF8431D8F784E1F9CF1E
:102C0000A0E0B0E0E6E0F6E10C94F3288901D42FCF
:102C1000C52F6B017C010E94DE07A8016D2F7C2F60
:102C200088E090E00E94022A98014D2F5C2FB601A7
:102C3000C70100E20E943B29622F83E290E00E94DC
:102C4000F029CDB7DEB7E8E00C940F29809133036B
:102C5000833018F48F5F8093330320912F033091DA
:102C600030034091310350913203609133037091EE
:102C7000340380913503909136030E940016089525
:102C800080913303811519F0815080933303209193
:102C90002F03309130034091310350913203609102
:102CA00033037091340380913503909136030E9471
:102CB00000160895A3E0B0E0E0E6F6E10C94EC28FD
:102CC000F82E762EE42E622E90912F0390FF2FC0C7
:102CD000E92FE695E695AE2FB0E0A45DBE4F8C914E
:102CE00080932D039C7F943031F59E012F5F3F4FE1
:102CF0008F2D0E944F074B8169818A810E940108B4
:102D0000F092300370923103E0923203611479F053
:102D100020912F0360913303709134033F2D472D91
:102D20005E2D80913503909136030E940016239604
:102D3000EFE00C940829823019F4E0903203E0CFE0
:102D4000863019F4F0903003DBCF8930D9F3893124
:102D5000B9F6E9518E2F8170582EE695F0E0E258D1
:102D6000F94FE4910E2F10E089E4C82E82E0D82EAE
:102D7000A12CB12C98E1892E912CC501B4010E949F
:102D8000A5288F2D511013C0860F96014E2D672D4B
:102D90000E944F07A00EB11E83E0C80ED11C81E92E
:102DA000C81682E0D80649F70E94EC07A9CF861B17
:102DB000ECCFEFE2F3E0818121E043816281885F23
:102DC0000E945A160895EFE2F3E0818121E04381E9
:102DD000628188500E945A160895EFE2F3E0628102
:102DE00028E0620F08F46FEF21E0438181810E94A7
:102DF0005A160895EFE2F3E0628128E0621B08F4BE
:102E000060E021E0438181810E945A160895EFE23B
:102E1000F3E0438128E0420F08F44FEF21E06281A4
:102E200081810E945A160895EFE2F3E0438128E081
:102E3000421B08F440E021E0628181810E945A1621
:102E4000089560912F036695669570E04BE050E021
:102E500088E091E00E94B229892B19F481E08093E7
:102E60002E030E94A00B9093C8028093C70208957E
:102E700090912F0390FF3BC08115D1F18B32D0F59B
:102E80008F73282F220F220F80912F038370282BFE
:102E900020932F03611581F030913003409131036D
:102EA0005091320360913303709134038091350364
:102EB000909136030E94001660912F0366956695E7
:102EC00070E04BE050E088E091E00E94B229892B4D
:102ED00099F010922E0381E08093CA0220E0409185
:102EE000320360913103809130030E945A16089595
:102EF00081E0C7CF8AE2C5CF0E942117ECCF809135
:102F00002F03869586958F5F8B3208F081E061E014
:102F10000E943817089580912F03869586958A958B
:102F200009F48AE261E00E943817089561E00E9486
:102F30003817089590912F0390FF09C096959695A4
:102F4000981728F0961718F40E947F1708950E948A
:102F500096170895A8E0B0E0E0EBF7E10C94E928BB
:102F60005C01FC018481811509F4AAC061E0C501FE
:102F70000E944F108C01F5018581811509F475C1FE
:102F8000C80197578038910508F03BC1003108F01F
:102F900087C08FEF93E00E94CC29811181C048E85F
:102FA000E42E43E0F42E01114FC0CE0101964C01F6
:102FB00088E0F40111928A95E9F73AE0332E87010F
:102FC0000F5F1F4FC7010E94CC2989831A82811588
:102FD00009F466C0813009F077C06701F2E0CF0ED6
:102FE000D11CC8010E94CC298A83811509F458C0DC
:102FF0009FEF980F9330B8F523E0E20EF11CC60165
:103000000E94CC298B83811509F44AC01C8284015B
:10301000F8012081211599F2213009F096C08181B3
:10302000813009F053C06801F2E0CF0ED11CF801E5
:10303000828160E5893309F060E070E00E94E61467
:1030400086010F5F1F4FE4CFE114F4E0FF0641F16A
:10305000C7010E94CC2997012F5F3F4F7901811151
:10306000F3CF0150A0CF8430A1F402E010E0C601FC
:103070003FEFC31AD30A0E94CC29F401E00FF11FDD
:103080008083811569F08C3731F4FE01E00FF11F68
:1030900012827601BCCF0F5F1F4F0730110539F741
:1030A00080913C038770811559F0F5018581811568
:1030B00039F080913E0382FF03C082E00E94200528
:1030C0002896E2E10C9405297801A1CF823049F4D9
:1030D0006801F2E0CF0ED11CF80182810E94F51345
:1030E000AFCF833049F46801F2E0CF0ED11CF80174
:1030F00082810E948C14A4CF843019F00F5F1F4F7F
:10310000A0CF22810E5F1F4F80E090E0A8014F5FAB
:103110005F4F2053330B2A30310558F0009709F4E4
:1031200090CFEFE9FFE03197F1F700C00000019781
:10313000F5CF389EB001399E700D1124C901860F5C
:10314000971FF80121818A01E1CFE22FF0E0E853D7
:10315000F84F2490822F86958695869590E0FC0105
:10316000E854F84FE4912770F0E0022E02C0F59584
:10317000E7950A94E2F7E1704E2E5524FC01E855DC
:10318000F84FE491F0E0022E02C0F595E7950A941D
:10319000E2F7E1706E2E7724FC01E856F84FC490F8
:1031A000D12C02C0D594C7942A95E2F7C0FACC245A
:1031B000DD24C0F84114510419F081EE0E94F5138A
:1031C0006114710419F086EE0E94F51360E070E05E
:1031D000822D0E94E6146114710419F086EE0E949B
:1031E0008C144114510419F081EE0E948C14C11406
:1031F000D10409F426CF60E070E08CE20E94E6146E
:1032000020CF769AF5013581311509F493C003304A
:10321000F8E71F0709F443C050F5013088E71807A5
:10322000B1F1023098E7190709F468C083E001158D
:10323000E8E71E0769F110922B03C80190578397A6
:1032400008F07EC484E090E00E94DA2990933E0367
:1032500080933D03F801E150F047E232F10508F0B8
:1032600092C0EA55F54D0C94CD287698CBCF04301A
:10327000F8E71F0779F1053028E7120709F448C07D
:10328000F801E851FC47E730F105A8F65AC080E0A4
:103290000E94B60A80912A030E94FE0E01CF8091FF
:1032A0002A03883078F0885080932A0391E0883090
:1032B00008F490E080912A0390FB80F980932A0320
:1032C0000E94FE0E80912A038695869586950E941F
:1032D000240AE6CE90912A03892F869586958695B5
:1032E000983140F48F5F880F880F880F9770892B73
:1032F00080932A0380912A038160E0CF80912A0382
:1033000080FF03C00E941C0FCBCE0E94040FC8CECA
:1033100080912A038695869586958F5F8F7184307C
:1033200008F080E0880F880F880F90912A0397702B
:10333000892BBACFF801E851FC47E730F10508F0D6
:1033400016C4E853F54D0C94CD2826E241EE61EE0B
:10335000832F0E941115A4CE27E245EE65EEF8CF2B
:1033600026E241EE60EEF4CF27E245EE64EEF0CFC8
:1033700026E241EE62EEECCF27E245EE66EEE8CFC4
:1033800028E241E0EBCF80913D03816080933D03D3
:1033900060913D0370913E0384E090E00E940E2A0C
:1033A0000E94FF107DCE80913E03886080933E0393
:1033B000EFCF80913D038260E9CF80913D0384602F
:1033C000E5CF80913D038860E1CF80913E0381602D
:1033D000EDCF80913E038260E9CF80913D03806113
:1033E000D5CF80913D038062D1CF80913D03806431
:1033F000CDCF0E94FF1080913D038068C7CF8091A0
:103400003D038C60C3CF80913E038360CFCF80911A
:103410003D038E7FBBCF80913E03877FC7CF8091D6
:103420003D038D7FB3CF80913D038B7FAFCF8091E4
:103430003D03877FABCF80913E038E7FB7CF8091D6
:103440003E038D7FB3CF80913D038F7E9FCF8091D0
:103450003D038F7D9BCF80913D038F7B97CF0E9453
:10346000FF1080913D038F7791CF80913D03837F43
:103470008DCF80913E038C7F99CF80913D0399271A
:1034800082FF939590FB82F990FB83F97FCF809127
:103490003E03982F909590FB80F990FB81F986CFA1
:1034A00090913D03892F8F7B96FF80646FCF0E94A0
:1034B000FF1090913D03892F97FB87F9805866CFC5
:1034C00061E08EE090E00E94F02962CF60E0F9CFE9
:1034D00090913D03892F8F7E94FF806157CF90910B
:1034E0003D03892F8E7F90FF816050CF90913E03E6
:1034F000892F877F93FF886059CF89E233C389E2A0
:1035000041C307378CE7180709F092C081E00E9499
:103510006F0443E062E081E00E94F504C1CD809138
:1035200037038272F801E052F847E531F10508F0FF
:103530007AC0E153F54D0C94CD2820912F0320FF44
:1035400018C02E7F20932F03309130034091310318
:1035500050913203609133037091340380913503AD
:10356000909136030E94001610922E030E94EC07E1
:1035700097CD822F816080932F03869586950E9438
:1035800096178ECD4BE857E16FE777E10E941D0A51
:1035900087CD4FE757E16BE877E1F8CF43EE56E18F
:1035A00069ED76E1F3CF49ED56E163EE76E1EECFDA
:1035B0004AEF56E16DEE76E1E9CF4DEE56E16AEF66
:1035C00076E1E4CF44E157E167E077E1DFCF47E020
:1035D00057E164E177E1DACF40E456E166E276E173
:1035E000D5CF46E256E160E476E1D0CF81E0C7CFA7
:1035F00065E082E00E949A1753CD68E086E0FACF3A
:103600006EE089E0F7CF64E18FE0F4CF67E185E118
:10361000F1CF88E1B4CF62E289E1ECCF83E2AFCFB2
:103620006AE285E2E7CF07379CE7190709F469C02A
:103630000837ECE71E0709F468C03115A9F00A3510
:10364000FCE71F0709F48BC008F063C001303CE7BA
:10365000130709F482C003308CE7180709F477C018
:1036600001151C4709F466C0F5018581E080F180F1
:10367000811509F478C0C7010E942410182F682F03
:10368000C7010E948B04B701812F0E9416100E946F
:1036900030068C01F501D580C680C2942FE0C2228D
:1036A00080913C038770811501F1ED2CD114F1F06C
:1036B000812F807F803461F080E2800F8830A8F015
:1036C000812F807E803221F4023078F0C11469F0BD
:1036D00080913E0382FF09C082E00E942005809114
:1036E0003C038770EE24E3948111E12CE12FE295F5
:1036F000EF70103C08F0A2C0F0E0EC51F54D0C94D6
:10370000CD2881E00E947B0404CF82E03115D1F303
:10371000FECE0B35ECE71E0721F180913E0300241D
:1037200082FF0394802D0C351C4709F09DCF0E9429
:10373000E70E9ACF0E94FF102FEF34E38CE0215068
:1037400030408040E1F700C000000E94640E6FEF3F
:103750007FEF80E090E00E940E2A0E94261181E017
:10376000E6CF80E0E4CFC7010E94C104182F8BCFC1
:10377000F12FFF70FF2E103118F0F29490EFF92224
:10378000D114B9F0F11469F080E2800F883010F0A4
:10379000011109C0809137038F29809337030E945C
:1037A000C310802F43C080913F038F2980933F0334
:1037B000F6CF802F0E948C14F11409F43FC080E2F0
:1037C000800F883010F0011104C08F2D0E94380541
:1037D00006C0F09480913F038F2180933F030E94A5
:1037E000C3102CC0212F2F70F22E107F103219F031
:1037F000F29480EFF822011549F0013009F46BC012
:10380000D11409F477C0C114C9F1CBCF80913E0324
:1038100082FD30C0D11469F0F11439F08091370382
:103820008F29809337030E94C31080E00E94F51314
:1038300005C080E00E948C14F110C7CFE114A9F0FC
:1038400080913C0380FD11C0F50115828695869517
:1038500086950E946F04C5010E94AA1780913C03BF
:103860008695869586950E947B0460E0C5010E943E
:103870004F1026CCD11499F0C11004C08F2D0E9496
:103880000015DCCF31E0C312D9CF809138039F2DD2
:103890009823F91699F28F2980933803CFCFC1105E
:1038A000CDCF8F2D0E940A15909138038F2D89233B
:1038B000811529F08F2D809589238093380380917D
:1038C00039039F2D9823911509F4B8CFF094F8226D
:1038D000F0923903B3CFD11429F086E0C81608F06E
:1038E000ADCFCCCF95E0C91608F0A8CF8F2D0E94A0
:1038F0000A15A4CFC114D1F3093349F4EFEFF7EE61
:1039000023E0E150F0402040E1F700C00000802FAC
:103910000E948C1493CF812F869586958370811594
:1039200061F0813009F08ACFC8019370D11002C0D4
:1039300080E090E00E94550B81CFC8019370D110B8
:1039400002C080E090E00E942F0B78CF6D2D802F79
:103950000E94D40B73CF812F8370811136C0D11098
:1039600027C0402F429546954770440F440F802F43
:103970008F70042E01C0880F0A94EAF7202F20715F
:1039800004FF07C02FE030E001C0220F4A95EAF79C
:103990002095169516951370123091F0133071F032
:1039A00030913A03113049F0822B83230E9469043D
:1039B0000E94220B0E945E0441CF832B822BF6CF04
:1039C000822B90913A038927F1CFD11451F110FF46
:1039D000EFCF402F429546954770440F440F802FFC
:1039E0008F70042E01C0880F0A94EAF7202F2071EF
:1039F00004FF07C02FE030E001C0220F4A95EAF72C
:103A00002095169516951370123089F0133069F0D1
:103A100030913B03113041F0822B83230E946C04D0
:103A2000C7CF8230B0F6C4CF832B822BF7CF822B47
:103A300090913B038927F2CF1F70D11439F0812F69
:103A40000E946F04802F0E940015B2CF802F0E9429
:103A50000A15812F0E947B04ABCF023F71F170F4F5
:103A6000003FC9F0013F91F0D11409F455C0C114D1
:103A700009F44FC0802F0E94F5139ACF033F21F124
:103A8000043F91F790913E0392FD2AC0812F8F71E0
:103A9000D11401F316C0D11469F035E0C31608F053
:103AA00087CF1F7181E090E0012E01C0880F0A943A
:103AB000EAF7BECF86E0C816F2CF812F8F71D11002
:103AC000C9CF0E946F0474CF80E0D11409F4A6CF4F
:103AD0001F7181E0012E01C0880F0A94EAF79ECF82
:103AE000D11461F0812F8F7192FFEBCF982F990F36
:103AF000990F990F936090933C03E3CF81E00E946C
:103B0000200592E0C91608F453CF82E00E942005F8
:103B10004FCF812F8F71D5CFC11479F0093349F47C
:103B2000EFEFF7EE23E0E150F0402040E1F700C076
:103B30000000802F0E948C143BCF812F8F718ACF81
:103B40000631FCE71F0709F0DCCC809137038A7A45
:103B500091E0811101C090E090932C03811509F44C
:103B6000CCCC85E30E947B0B0E94C31099CA06311E
:103B70002CE7120709F0D3CC80912C03811509F4AE
:103B8000BECC85E30E94940BEFCF809180038031FF
:103B900078F480917F03811559F0E09141032091E1
:103BA000400330917B0340917A0357E02E1301C00C
:103BB00008956E2F70E05E9FF0011124DF01AE5B6F
:103BC000BC4F14968C911497811561F111968C91CC
:103BD0001197831327C08C91841324C015968C9160
:103BE000159781111FC012968D919C91A0917C0315
:103BF000B0917D038A1B9B0B883C910598F48091C2
:103C000080038F70806180938003E85BFC4F80812C
:103C10008F70806180838AE793E00E94AA170E94D8
:103C200016050895FB013196E770C0CFADE0B0E016
:103C3000ECE1FEE10C94ED288C0186E0F801DE0158
:103C4000189601900D928A95E1F7F801F58084812C
:103C50009AE7892E93E0992E60907E03611018C038
:103C6000811599F0F11409F415C1C8010E947E1064
:103C7000811509F40FC187E0F801AAE7B3E00190CC
:103C80000D928A95E1F70E94C51DFF24F39456C05A
:103C90007080A280B380D0907F0320917C0330910C
:103CA0007D03A501421B530BD11409F4C3C0483C4A
:103CB000510508F079C0811541F380917B03C180E3
:103CC000E090800350E1E51608F059C0C81215C015
:103CD00080917A03871111C0F1104BC08E2D8F7027
:103CE0008061809380038AE793E00E94AA17809105
:103CF0008003F8018683F12C21C0F1103AC040E026
:103D00006C2D872D0E94180E40E06C2D872D0E948F
:103D1000180EF82E8111EFCF888599850E946F10BB
:103D2000292F22952F70903470F49F702230A0F0CC
:103D30009115B1F0F8019681903190F48F2D2D9668
:103D4000EEE00C9409292A5F2F70223068F0C80138
:103D50000E94AA17FD2CF2CF911511F0811571F375
:103D6000805E883058F3F3CF803F40F3815F83302B
:103D7000F9CF80918003816080938003BCCFC8120B
:103D80003BC080917A03871137C0F11035C0E682BD
:103D9000C8010E94AA1787E0F801AAE7B3E00190E2
:103DA0000D928A95E1F771CFE0908003F0E1EF1674
:103DB00050F48AE793E00E94AA1787E0F401119279
:103DC0008A95E9F798CF811509F45FCF90917B032D
:103DD000F8018181981310C080917A0387110CC07B
:103DE000F1100AC0E682C8010E94AA1787E0F40118
:103DF00011928A95E9F749CFC8010E947E1081157A
:103E000009F448C0F11409F445C080918003803260
:103E100008F431CF80917A0390917B039A83898350
:103E2000BC82AB826D821E82EF82CE0101960E941F
:103E3000AA1721CF483C510508F0BFCF811509F4DE
:103E400024CFF11439F190917B038181981318C02C
:103E500080917A03871114C08091800380FD9BCFED
:103E6000803108F498CF8683807F803F09F490CF1B
:103E70008681982F907F905F8F70892B868388CF63
:103E8000C8010E947E108111F6CE8091800381606E
:103E900080938003C8010E94AA17F7CEABE1B0E07F
:103EA000E4E5FFE10C94F7284E8B5F8B688F798FE8
:103EB0008A8F192F9B8F911110923F031D8A86E0E4
:103EC000FE017696DE011F9601900D928A95E1F72C
:103ED0000A8D011539F00B8B1C8B61E0CE010F961A
:103EE0000E944F100B8B1C8B87E0FE013F96DE017A
:103EF000189601900D928A95E1F7CE0108960E94DE
:103F0000161E811128C0209140033091410387E0A3
:103F1000FE013896DE01119601900D928A95E1F727
:103F20008C858115C1F0822F90E0019687709927CA
:103F300038171906D9F097E0929FD0011124AE5B93
:103F4000BC4FFE01319601900D929A95E1F7809356
:103F500040030E94160517E08091410390914003B1
:103F6000891312C06B96E4E00C9413290E94FF1091
:103F7000109240031092410387E0EAE7F3E0DF018B
:103F80001D928A95E9F7E7CF189FC00111248E5B37
:103F90009C4F0E94161E811529F38091410390E0E9
:103FA00001968770992780934103D6CFA6E0B0E0B1
:103FB000ECEDFFE10C94F7280E94A00B8C0180919E
:103FC000EB029091EC028017910779F019821A8226
:103FD0000E94A00BBC0149815A8180E090E00E94C0
:103FE0004E1F1093EC020093EB022696E4E00C9433
:103FF0001329EFE2F3E080818160808360E08695A1
:1040000086950E9438170895A8E1B0E0EAE0F0E252
:104010000C94EB28FE01319688E1DF011D928A9510
:10402000E9F797E5C92E91E0D92E8F012F0166247B
:104030006394712C3CE6832E31E0932EF60181913E
:104040006F018F3F09F445C0F894E82FE295EF70B7
:10405000F0E021A18F70A30102C0440F551F8A9583
:10406000E2F7CA01922F982B91A392A18095892300
:1040700082A3789400C0E3E6F1E021E030E0A12CD7
:10408000B12C41914F3F81F0A42FA295AF70A05E5B
:10409000B0E08C9190E04F7002C0959587954A955D
:1040A000E2F7790180FF02C0E12CF12CAE28BF2895
:1040B000220F331F8E169F0621F7F60182918F3F44
:1040C00011F00E94350750EA5A95F1F7D801AD92E8
:1040D000BC920E5F1F4FB3E6CB16B1E0DB0609F0D2
:1040E000ADCF48E150E0B20181E992E00E94BF29E2
:1040F000892BA9F088E1F201A1E9B2E001900D92CB
:104100008A95E1F781E08093AE010E94A00B909325
:10411000AD018093AC016896E0E10C940729809191
:10412000AE018115C1F38091AC019091AD010E9467
:10413000B20C059780F348E150E061E972E082ED4E
:1041400092E00E94BF29892B49F088E1E1E9F2E081
:10415000A2EDB2E001900D928A95E1F71092AE01C6
:10416000DACFCDB7DEB7AC970FB6F894DEBF0FBE8F
:10417000CDBF85B7806885BF85B7806885BF84B7A8
:10418000877F84BF0FB6F894A895809160008861FE
:1041900080936000109260000FBE80E890E00FB640
:1041A000F89480936100909361000FBE83E397E0E1
:1041B0009093A3018093A2010E946E0D0E94BD0DF9
:1041C0008091E20084608093E20078948091EA021A
:1041D000811599F08091E9001091EC008F7017958E
:1041E00011271795182B1092E9008091E80083FDA4
:1041F0000E943C111F701093E90082E084BD93E09F
:1042000095BD9AEF97BD80936E000E94AA10811110
:1042100002C00E94B50F07E511E0A3E6AA2EA1E0B7
:10422000BA2ED8018D918D018F3F11F00E94350774
:10423000A016B106B1F703E611E0FCE6AF2EF1E0FF
:10424000BF2EF80181918F018F3F11F00E94350739
:10425000A016B106B1F788E1E2EDF2E0DF01A82E89
:104260001D92AA94E9F7E1E9F2E0DF011D928A9537
:10427000E9F7559A6E9A80E090E00E94DA29853E2F
:104280009E4F21F40E94AA10811175C065EE7EEF49
:1042900080E090E00E940E2A60E082E090E00E94C0
:1042A000F02981E080933A0361E083E090E00E948E
:1042B000F02960E074E184E090E00E940E2A60E062
:1042C00086E090E00E94F02960E087E090E00E94A4
:1042D000F02940E050E0BA0188E090E00E94022A14
:1042E00060E083E290E00E94F02960E08CE090E0E2
:1042F0000E94F02960E08DE090E00E94F029198290
:104300001A821B821C821D821E821F82188648E030
:1043100050E067E170E0CE0101960E94E02940E0A4
:1043200050E0BA018FE190E00E94022A80E00E94F2
:10433000990F0E94B50F80912F03816080932F0306
:10434000869586950E94961721E040E86FEF80E001
:104350000E945A168BE00E94961740E050E0BA0186
:104360008FE090E00E94022A40E050E0BA0183E131
:1043700090E00E94022A82E090E00E94CC29809383
:10438000AE0284E090E00E94DA2990933E0380938D
:104390003D030E940420EFEFF6E701E0E150F0401A
:1043A0000040E1F700C000000E9404208091D2028A
:1043B00080FF08C06FEF7FEF80E090E00E940E2A40
:1043C0000E94640E83E090E00E94CC290E94690460
:1043D000279A2F988AE08093800089E1809381005A
:1043E0008FEF9FEF90938700809386000E94C50F08
:1043F0000E94C50F8091A902811190C088E090E0D1
:104400000E94D42969A77AA78BA79CA783E290E092
:104410000E94CC29282F30E040E050E060E070E0BE
:1044200080E090E000E20E942029C9A4DAA4EBA475
:10443000FCA456016701E12CF12C8701A9A2BAA2C4
:10444000CBA2DCA2EDA2FEA20FA318A7D9A42D290E
:104450003B294C29ECA05E2920932F033093300395
:1044600040933103509332036093330370933403CA
:1044700080933503909336032430F0F525E02093A4
:104480002F03109230032FEF209331032093320338
:104490001092330325E030E04FEF5FEF60E00E94C1
:1044A000001688E090E00E94D4292B013C0183E2B1
:1044B00090E00E94CC29282F30E040E050E060E0FE
:1044C00070E080E090E000E20E9420296301520148
:1044D00024293B294C295D2920932F033093300355
:1044E000409331035093320360933303709334034A
:1044F00080933503909336030E94DE0710922E03BB
:104500000E94CD0A80912F0380FF05C060E0869550
:1045100086950E94381781E08093A90283E191E09B
:104520009093EE028093ED028091EA028530B1F41F
:104530008091EA02853009F467C00E94FF100E9452
:10454000C50F0E94220B0E945E041092AC02809163
:10455000AB0281110E94F91F0E9421170E940420C2
:104560007FEAC72E72E0D72EE2ED6E2EE2E07E2EBD
:10457000D301F601219131918D919D9142E0E73C6B
:10458000F40709F4B0C028173907A1F3512CD3015F
:104590000D911D913D01F601A190B1906F01A01602
:1045A000B10659F1A026B126412CEE24E394F12C5A
:1045B000C5018E219F21892BB9F049825A820E9420
:1045C000A00B9C838B83F1E0FD8391E098012E2169
:1045D0003F21232B09F490E09E8349815A816B810E
:1045E0007C818D810E944E1F4394EE0CFF1C29E0BC
:1045F0004212DECFF6011293029353944CE0541210
:10460000C6CF0E94A60C75C08091EA02843009F4DE
:104610003FC080E00E94B60A80E00E945E041092D3
:104620002E038091AC0281110FC0FF24F394F0920D
:10463000AC0280912F03982F91709093AB028E7FE4
:1046400080932F030E94EC071092AA0208E110E069
:1046500020E40FB6F894A895009360000FBE209355
:10466000600083B7817F846083BF83B7816083BF2D
:104670007894889583B78E7F83BF0FB6F894A895FA
:1046800080916000886180936000109260000FBE8E
:104690008091AD02811509F44BCF0E940420E2ED18
:1046A000F2E08AEE92E021913191232B21F48E17D2
:1046B0009F07C9F73DCF80E189BD82E189BD09B47B
:1046C00000FEFDCF8091D8008F7D8093D80080912F
:1046D000E00082608093E0008091E00081FDFCCFEB
:1046E0000E94FF1025CF2817390709F04FCF0E94ED
:1046F000D61F80912E03811509F444C080912D03AB
:10470000E0912F03E695E695E81BE093C902853119
:1047100009F4A0C108F050C1893009F48FC108F034
:104720003CC1823009F474C1863009F47CC100EDCB
:1047300017E04EE4E42E47E0F42E8091CA02811582
:1047400061F01092CA020E94A00B9093C80280935D
:10475000C7021092CC021092CB020E94A00B2091B3
:10476000C7023091C802821B930B8F3F9F4750F4C2
:10477000200F311F3093C8022093C70287EC92E0CC
:10478000F701099586E0E4E2F3E0DE01119601907D
:104790000D928A95E1F7D0902503F09026031091B1
:1047A0002703E0902803009129031092260310921A
:1047B00027031092280310922903812F8F29811536
:1047C00009F440C08091CF029091D0020E94B20CB7
:1047D0001C0180912203811509F419C3F5E12F16FC
:1047E000310480F18F3F19F08F5F80932203F11421
:1047F00059F00E94DD0A91E01F140CF09FEF899F91
:10480000802D112480932603111559F00E94DD0A92
:1048100091E011160CF09FEF899F802D1124809359
:10482000270380912603811569F0C0902703C114E6
:1048300049F00E94CF0A809326038C2D0E94CF0A54
:10484000809327038E2D802B811509F440C0809121
:10485000CD029091CE020E94B20C4C0180912103B6
:10486000811509F4CEC221E58216910480F18F3FB3
:1048700019F08F5F80932103E11459F00E94FD0A23
:1048800091E01E140CF09FEF899F802D11248093DE
:104890002803011559F00E94FD0A91E010160CF052
:1048A0009FEF899F802D11248093290380912803F5
:1048B000811569F0E0902903E11449F00E94CF0AC4
:1048C000809328038E2D0E94CF0A80932903809124
:1048D00025038D1119C080912603811511F08F11C8
:1048E00013C020912703211511F021130DC09091C1
:1048F0002903911511F0901307C03091280331114D
:1049000003C0822B892B81110E94AC0B86E0FE0133
:104910003196A4E2B3E001900D928A95E1F70E94EE
:10492000220B182F8091D102181739F01093D10261
:104930000E94A60C812F0E945E048091EA028430BE
:1049400009F0F2CD83E08093E9008091E80082FFD6
:10495000EBCD8091E80090E085FF0CC00E943D0DFA
:1049600060E2E62EF12C8E010F5F1F4F811509F4D6
:104970008DC091E08091E8008B778093E8009115DD
:1049800009F4D2CD8981EFEFE80FE33108F098C048
:10499000F0E0E051F54D0C94CD288F3009F0C7CEF2
:1049A000E695F0E0E557F84FE4910E2F10E088E728
:1049B000E82E88E0F82EC1CE843209F456C0A8F45F
:1049C00008E210E077E2E72E79E0F72E883109F46B
:1049D000B4CE833209F0ABCEE6E8F7E0059115914D
:1049E000ACEAEA2EA9E0FA2EA8CE853209F09FCED5
:1049F0008E2F63E00E948B28E92FF0E0ED57F84FEF
:104A0000E4910E2F10E0FDE6EF2EF5E1FF2E95CE9E
:104A1000F0E0EC56F84FE4910E2F10E03AE3E32E6D
:104A200038E0F32E8ACEF0E0EF56F84FE4910E2FE7
:104A300010E02AE2E22E28E0F22E7FCEE695F0E0AA
:104A4000E257F84FE4910E2F10E09EE4E92E98E033
:104A5000F92E73CEF0E0E857F84FE4910E2F10E0F6
:104A6000B9EDEB2EB8E0FB2E68CE04EF11E0E6EED8
:104A7000EE2EE9E0FE2E61CE8091F100D8018D93FB
:104A80008D01B1E0EB1AF10809F473CF8091E800D1
:104A900085FDF2CF8091E8008B778093E8000E943B
:104AA0003D0D811599F365CF1A828CE08B831AC076
:104AB0008A81833049F138F4813061F08230D9F055
:104AC0008FEF89830FC08430D9F71B821C821D822F
:104AD0001E8208C00E94A60C0E94D3286B837C8390
:104AE0008D839E8340E250E0BE016F5F7F4F82E086
:104AF0000E94880E19CD87E290E00E94CC291B828B
:104B00001C821D828E83EECF8B8190E0FE01319658
:104B100032968C30910534F7DC01AA0FBB1FAE52E0
:104B2000BD4F2C9111963C91318322830196F0CF99
:104B30008A818230B1F0853019F680912A0380FF96
:104B40001BC00E941C0F80912F0380FF18C0809112
:104B50002F038E7F80932F0310922E030E94EC0769
:104B6000C1CF6B817C818D819E810E94D32887E299
:104B700090E00E94F029B6CF0E94040FE4CF0E947B
:104B8000F91FB0CF4C816B818A810E94E70F982773
:104B9000892798279E838D83A5CF2D813E8132273B
:104BA000232732274C816B818A810E94290F9ACF5B
:104BB0000E94500F97CF9A81913079F58830A9F0F3
:104BC000893031F18B81813009F08CCF2C8130E03C
:104BD000C901880F991F820F931F6FEF70E00E9429
:104BE000A528862F0E94B60A7DCF8B81813029F0BF
:104BF000823009F077CF1C8275CF80912A03869589
:104C000086958695E5E58E9FC00111248C836ACF39
:104C100080912A030E94FE0E65CF923009F050CF9A
:104C2000883069F1893009F44CC08B81833019F1E7
:104C300080F48130B9F0823009F054CF8C81811535
:104C400009F485CF0E94F91F60E08C810E9438171B
:104C500049CF843009F046CF20E0409132036D8186
:104C60008C8106C020E04C8160913103809130033B
:104C70000E945A1637CF8C818093330333CF8B81B8
:104C80008330E1F060F48130A1F0823009F02ACF66
:104C900080912F0380FF10C086958695B7CF843012
:104CA00009F020CF809130038C83809131038D8374
:104CB00019CF80913203AACF80E0A8CF809133032F
:104CC000A5CF20912F0330913003409131035091B3
:104CD00032036091330370913403809135039091D6
:104CE00036030E940016FECE80E18A83FBCE1A8234
:104CF00088E7DCCE0A811B811027012710278C81D1
:104D00006801C80ED11C7E01F5E0EF0EF11C0C15F8
:104D10001D0509F4E7CE80E00837110528F4C80125
:104D200088579C4F0E94CC29D7018D937D010F5F3E
:104D30001F4FEDCF0A811B81102701271027FE018D
:104D400031967F018C816F01C80ED11CEC14FD04DB
:104D500009F4C8CE0837110540F4D70114966C91B8
:104D6000C80188579C4F0E94F0290F5F1F4FBFEF6B
:104D7000EB1AFB0AEBCF0E94890FB4CE84E0B5CFCB
:104D80000A811B811027012710278C816801C80E1A
:104D9000D11C7E01E5E0EE0EF11CC016D10609F42F
:104DA000A1CE80E00036F3E01F0720F4C80188960A
:104DB0000E94CC29D7018D937D010F5F1F4FEDCF4E
:104DC0000A811B81102701271027FE0131967F01E0
:104DD0008C816F01C80ED11CCE14DF0409F482CE81
:104DE0000036F3E01F0738F4D70114966C91C80120
:104DF00088960E94F0290F5F1F4FBFEFEB1AFB0A46
:104E0000EBCFEBE08E16910408F033CD60CDFBE0E4
:104E10002F16310408F0E8CC15CD1F921FB61F9253
:104E200011248F939F93AF93BF938091AA02811116
:104E300013C08091C6019091C701A091C801B091A3
:104E4000C9014196A11DB11D8093C6019093C70170
:104E5000A093C801B093C901BF91AF919F918F9169
:104E60001F901FBE1F90189578941F921FB61F9217
:104E700011248F939F93AF93BF938091C60190911C
:104E8000C701A091C801B091C9010196A11DB11D32
:104E90008093C6019093C701A093C801B093C90144
:104EA000BF91AF919F918F911F901FBE1F9018953A
:104EB0001F920F920FB60F9211242F933F934F938F
:104EC0005F936F937F938F939F93AF93BF93EF9372
:104ED000FF938091E10082FF09C08091E20082FF90
:104EE00005C08091E1008B7F8093E1008091DA0022
:104EF00080FF24C08091D80080FF20C08091DA001C
:104F00008E7F8093DA008091D90080FF9BC080E182
:104F100089BD82E189BD09B400FEFDCF81E08093A7
:104F2000EA028091B401811109C00E946E0D0E94B5
:104F3000BD0D8091E20084608093E2008091E100E9
:104F400080FF17C08091E20080FF13C08091E200D3
:104F50008E7F8093E2008091E20080618093E20086
:104F60008091D80080628093D80019BC85E080933E
:104F7000EA028091E10084FF29C08091E20084FF71
:104F800025C080E189BD82E189BD09B400FEFDCF65
:104F90008091D8008F7D8093D8008091E1008F7E32
:104FA0008093E1008091E2008F7E8093E200809107
:104FB000E20081608093E2008091B301811509F4E1
:104FC00047C084E08093EA028091EA028091E10088
:104FD00083FF27C08091E20083FF23C08091E1001E
:104FE000877F8093E10082E08093EA021092B30110
:104FF0008091E1008E7F8093E1008091E2008E7FBE
:105000008093E2008091E20080618093E20042E0C0
:1050100060E080E00E948D0D8091F00088608093B8
:10502000F000FF91EF91BF91AF919F918F917F9190
:105030006F915F914F913F912F910F900FBE0F9005
:105040001F90189519BC1092EA021092B40176CF05
:105050008091E30087FF02C083E0B4CF81E0B2CF4C
:105060001F920F920FB60F921124EF92FF920F939F
:105070001F932F933F934F935F936F937F938F93E0
:105080009F93AF93BF93CF93EF93FF9309EE10E0FD
:10509000F8018081C091EC008F70C795CC27C7952F
:1050A000C82B108280EFE82EF12CF7018081877FDA
:1050B000808378940E943C11F8011082F70180816E
:1050C00088608083CF70F801C083FF91EF91CF910A
:1050D000BF91AF919F918F917F916F915F914F9110
:1050E0003F912F911F910F91FF90EF900F900FBE66
:1050F0000F901F901895DB018F939F930E94432A76
:10510000BF91AF91A29F800D911DA39F900DB29F63
:10511000900D11240895992778E0880F991F96170C
:1051200008F0961B881F7A95C9F78095089587FB2C
:10513000082E062687FD819567FD61950E948B28C4
:105140000EF4919507FC81950895AA1BBB1B51E1B4
:1051500007C0AA1FBB1FA617B70710F0A61BB70BE7
:10516000881F991F5A95A9F780959095BC01CD018C
:10517000089597FB072E16F4009407D077FD09D009
:105180000E94A52807FC05D03EF4909581959F4F7D
:105190000895709561957F4F0895EE0FFF1F05905C
:1051A000F491E02D099469279627692778278727A6
:1051B000782708950E94782A332312F48A1B9B0BC8
:1051C0000C94E4280E94782AB7FF0895821B930B61
:1051D00008952F923F924F925F926F927F928F929B
:1051E0009F92AF92BF92CF92DF92EF92FF920F9376
:1051F0001F93CF93DF93CDB7DEB7CA1BDB0B0FB680
:10520000F894DEBF0FBECDBF09942A88398848883C
:105210005F846E847D848C849B84AA84B984C884D2
:10522000DF80EE80FD800C811B81AA81B981CE0FC9
:10523000D11D0FB6F894DEBF0FBECDBFED010895AE
:10524000002E083090F0982F872F762F652F542F3F
:10525000432F322F22270850F4CF220F331F441F31
:10526000551F661F771F881F991F0A95B2F7002DDB
:10527000089597FD1094002E083098F00850232FC1
:10528000342F452F562F672F782F892F912DF4CF4C
:105290001594979587957795679557954795379581
:1052A00027950A95AAF71124002D08958F929F92B1
:1052B000AF92BF92CF92DF92EF92FF92CF93DF93A4
:1052C000EC01688179818A819B8161157105810575
:1052D000910521F464E279ED8BE597E02DE133EF60
:1052E00041E050E00E94242A49015A019B01AC018F
:1052F000A7EAB1E40E94432A6B017C01ACEEB4EF53
:10530000A50194010E94512ADC01CB018C0D9D1D49
:10531000AE1DBF1DB7FF03C00197A109B048888328
:105320009983AA83BB839F77DF91CF91FF90EF9002
:10533000DF90CF90BF90AF909F908F9008950E9484
:105340005629089580E091E00E9456290895A0E032
:10535000B0E08093000190930101A0930201B0930B
:1053600003010895FC014150504030F001900616B1
:10537000D1F73197CF010895882799270895FB0128
:10538000DC0104C08D910190801921F441505040FE
:10539000C8F7881B990B0895F999FECF92BD81BD7E
:1053A000F89A992780B50895A6E1B0E044E050E06E
:1053B0000C94162AA8E1B0E042E050E00C94162AC2
:1053C000DC01A40FB51F4150504048F0CB01840FC1
:1053D000951F2E910E94F12941505040D0F7089519
:1053E000262FF999FECF92BD81BDF89A019700B49E
:1053F000021639F01FBA20BD0FB6F894FA9AF99A3E
:105400000FBE08950396272F0E94F1290E94F029CC
:10541000252F0E94F129242F0C94F1290196272F82
:105420000E94F1290C94F029DC01CB01FC01F999CF
:10543000FECF06C0F2BDE1BDF89A319600B40D92E0
:1054400041505040B8F70895052E97FB1EF4009484
:105450000E943B2A57FD07D00E94562A07FC03D022
:105460004EF40C943B2A50954095309521953F4F32
:105470004F4F5F4F089590958095709561957F4F40
:105480008F4F9F4F08950E94782AA59F900DB49F3B
:10549000900DA49F800D911D11240895B7FF0C94C9
:1054A000432A0E94432A821B930B0895A1E21A2EDD
:1054B000AA1BBB1BFD010DC0AA1FBB1FEE1FFF1FB8
:1054C000A217B307E407F50720F0A21BB30BE40B08
:1054D000F50B661F771F881F991F1A9469F760954F
:1054E0007095809590959B01AC01BD01CF01089509
:1054F000A29FB001B39FC001A39F700D811D112415
:10550000911DB29F700D811D1124911D0895F89475
:10551000FFCFF30BFB0BFE0B040C190C190C190C31
:10552000190C190C190C190C190C070C0C0C100C7B
:10553000160C270C2D0C310C1A1240124612401278
:1055400046129912BB124612B613C313071A6F1AEA
:105550000F1AD919DD19131AE119171A231AED199F
:10556000681AF119271AF5192B1A501AF9192F1A56
:10557000571AFF19351A3D1AE5191B1AE9191F1A8E
:10558000031A391A471A601A661AD3190B1A761AAF
:10559000B019B419A519AC19B819BC19C0199D1ABC
:1055A000C21AC91ACE1AD31AD81ADD1AE21AE71A81
:1055B000EC1AF11AF61AF81AFD1A001B031B061B47
:1055C000091B0B1B0E1B101BB81BB81BF21BF21B7D
:1055D0008B1CA61C1E1C1E1CAB1C1C1D2D1D2D1D5A
:1055E000542558259825C225CD25D825DB25DB2532
:1055F000DB2560256025742677267A269A26BB2629
:06560000BE26C026E026D4
:10560600010000000101010201191A1B1C1D1E1FC9
:10561600202122C10CC20EC40CD90EE00E44227BFE
:1056260049012701AC009F01B801D801000102021F
:1056360002020606060909090909090F0F0F0F0FCD
:105646000F151515181919191919191919191923D1
:105656002425252525252530313233909135369759
:10566600349694F0F1F4F5F6F7676692E200E900F5
:10567600EA00B500B600B700CD008301CC008A0170
:105686009201940121022302240225022602270206
:105696002A02B300B4006F0070009F01CB019F0285
:0256A600A00260
:00000001FF
